{
  "contractName": "RightsManagement",
  "abi": [
    {
      "inputs": [],
      "stateMutability": "nonpayable",
      "type": "constructor"
    },
    {
      "anonymous": false,
      "inputs": [
        {
          "indexed": false,
          "internalType": "address",
          "name": "AudioContract",
          "type": "address"
        },
        {
          "indexed": false,
          "internalType": "uint256",
          "name": "tokenId",
          "type": "uint256"
        },
        {
          "indexed": false,
          "internalType": "address",
          "name": "owner",
          "type": "address"
        }
      ],
      "name": "AudioAdded",
      "type": "event"
    },
    {
      "anonymous": false,
      "inputs": [
        {
          "indexed": false,
          "internalType": "address",
          "name": "AudioContract",
          "type": "address"
        },
        {
          "indexed": false,
          "internalType": "uint256",
          "name": "tokenId",
          "type": "uint256"
        },
        {
          "indexed": false,
          "internalType": "address",
          "name": "owner",
          "type": "address"
        }
      ],
      "name": "AudioListed",
      "type": "event"
    },
    {
      "anonymous": false,
      "inputs": [
        {
          "indexed": false,
          "internalType": "address",
          "name": "AudioContract",
          "type": "address"
        },
        {
          "indexed": false,
          "internalType": "uint256",
          "name": "tokenId",
          "type": "uint256"
        },
        {
          "indexed": false,
          "internalType": "address",
          "name": "seller",
          "type": "address"
        },
        {
          "indexed": false,
          "internalType": "uint256",
          "name": "price",
          "type": "uint256"
        }
      ],
      "name": "AudioSold",
      "type": "event"
    },
    {
      "anonymous": false,
      "inputs": [
        {
          "indexed": false,
          "internalType": "address",
          "name": "offerer",
          "type": "address"
        },
        {
          "indexed": false,
          "internalType": "uint256",
          "name": "tokenId",
          "type": "uint256"
        },
        {
          "indexed": false,
          "internalType": "uint256",
          "name": "offerPrice",
          "type": "uint256"
        }
      ],
      "name": "offerAccepted",
      "type": "event"
    },
    {
      "anonymous": false,
      "inputs": [
        {
          "indexed": false,
          "internalType": "address",
          "name": "offerer",
          "type": "address"
        },
        {
          "indexed": false,
          "internalType": "uint256",
          "name": "tokenId",
          "type": "uint256"
        },
        {
          "indexed": false,
          "internalType": "uint256",
          "name": "offerPrice",
          "type": "uint256"
        }
      ],
      "name": "offerMade",
      "type": "event"
    },
    {
      "inputs": [],
      "name": "LISTING_FEE",
      "outputs": [
        {
          "internalType": "uint256",
          "name": "",
          "type": "uint256"
        }
      ],
      "stateMutability": "view",
      "type": "function",
      "constant": true
    },
    {
      "inputs": [
        {
          "internalType": "uint256",
          "name": "",
          "type": "uint256"
        }
      ],
      "name": "_AudioOffers",
      "outputs": [
        {
          "internalType": "uint256",
          "name": "offerId",
          "type": "uint256"
        },
        {
          "internalType": "address",
          "name": "offerer",
          "type": "address"
        },
        {
          "internalType": "uint256",
          "name": "offerPrice",
          "type": "uint256"
        },
        {
          "internalType": "uint256",
          "name": "tokenId",
          "type": "uint256"
        },
        {
          "internalType": "bool",
          "name": "accepted",
          "type": "bool"
        }
      ],
      "stateMutability": "view",
      "type": "function",
      "constant": true
    },
    {
      "inputs": [
        {
          "internalType": "address",
          "name": "_AudioContract",
          "type": "address"
        },
        {
          "internalType": "uint256",
          "name": "_tokenId",
          "type": "uint256"
        }
      ],
      "name": "addAudio",
      "outputs": [],
      "stateMutability": "nonpayable",
      "type": "function"
    },
    {
      "inputs": [
        {
          "internalType": "address",
          "name": "_AudioContract",
          "type": "address"
        },
        {
          "internalType": "uint256",
          "name": "_tokenId",
          "type": "uint256"
        }
      ],
      "name": "listAudio",
      "outputs": [],
      "stateMutability": "payable",
      "type": "function",
      "payable": true
    },
    {
      "inputs": [
        {
          "internalType": "uint256",
          "name": "_tokenId",
          "type": "uint256"
        },
        {
          "internalType": "uint256",
          "name": "_offerPrice",
          "type": "uint256"
        }
      ],
      "name": "bidAudio",
      "outputs": [],
      "stateMutability": "nonpayable",
      "type": "function"
    },
    {
      "inputs": [
        {
          "internalType": "uint256",
          "name": "offerId",
          "type": "uint256"
        },
        {
          "internalType": "uint256",
          "name": "_tokenId",
          "type": "uint256"
        }
      ],
      "name": "acceptOffer",
      "outputs": [],
      "stateMutability": "nonpayable",
      "type": "function"
    },
    {
      "inputs": [
        {
          "internalType": "uint256",
          "name": "offerId",
          "type": "uint256"
        },
        {
          "internalType": "address",
          "name": "_audioContract",
          "type": "address"
        },
        {
          "internalType": "uint256",
          "name": "_tokenId",
          "type": "uint256"
        }
      ],
      "name": "buyAudio",
      "outputs": [],
      "stateMutability": "payable",
      "type": "function",
      "payable": true
    },
    {
      "inputs": [],
      "name": "getListingFee",
      "outputs": [
        {
          "internalType": "uint256",
          "name": "",
          "type": "uint256"
        }
      ],
      "stateMutability": "view",
      "type": "function",
      "constant": true
    },
    {
      "inputs": [
        {
          "internalType": "uint256",
          "name": "_tokenId",
          "type": "uint256"
        }
      ],
      "name": "getListedOffers",
      "outputs": [
        {
          "components": [
            {
              "internalType": "uint256",
              "name": "offerId",
              "type": "uint256"
            },
            {
              "internalType": "address",
              "name": "offerer",
              "type": "address"
            },
            {
              "internalType": "uint256",
              "name": "offerPrice",
              "type": "uint256"
            },
            {
              "internalType": "uint256",
              "name": "tokenId",
              "type": "uint256"
            },
            {
              "internalType": "bool",
              "name": "accepted",
              "type": "bool"
            }
          ],
          "internalType": "struct RightsManagement.Offers[]",
          "name": "",
          "type": "tuple[]"
        }
      ],
      "stateMutability": "view",
      "type": "function",
      "constant": true
    },
    {
      "inputs": [],
      "name": "getListedAudio",
      "outputs": [
        {
          "components": [
            {
              "internalType": "address",
              "name": "AudioContract",
              "type": "address"
            },
            {
              "internalType": "uint256",
              "name": "tokenId",
              "type": "uint256"
            },
            {
              "internalType": "address payable",
              "name": "owner",
              "type": "address"
            },
            {
              "internalType": "bool",
              "name": "listed",
              "type": "bool"
            }
          ],
          "internalType": "struct RightsManagement.Audio[]",
          "name": "",
          "type": "tuple[]"
        }
      ],
      "stateMutability": "view",
      "type": "function",
      "constant": true
    },
    {
      "inputs": [],
      "name": "getMyAudio",
      "outputs": [
        {
          "components": [
            {
              "internalType": "address",
              "name": "AudioContract",
              "type": "address"
            },
            {
              "internalType": "uint256",
              "name": "tokenId",
              "type": "uint256"
            },
            {
              "internalType": "address payable",
              "name": "owner",
              "type": "address"
            },
            {
              "internalType": "bool",
              "name": "listed",
              "type": "bool"
            }
          ],
          "internalType": "struct RightsManagement.Audio[]",
          "name": "",
          "type": "tuple[]"
        }
      ],
      "stateMutability": "view",
      "type": "function",
      "constant": true
    },
    {
      "inputs": [],
      "name": "getMyListedAudio",
      "outputs": [
        {
          "components": [
            {
              "internalType": "address",
              "name": "AudioContract",
              "type": "address"
            },
            {
              "internalType": "uint256",
              "name": "tokenId",
              "type": "uint256"
            },
            {
              "internalType": "address payable",
              "name": "owner",
              "type": "address"
            },
            {
              "internalType": "bool",
              "name": "listed",
              "type": "bool"
            }
          ],
          "internalType": "struct RightsManagement.Audio[]",
          "name": "",
          "type": "tuple[]"
        }
      ],
      "stateMutability": "view",
      "type": "function",
      "constant": true
    },
    {
      "inputs": [],
      "name": "getOffers",
      "outputs": [
        {
          "internalType": "uint256",
          "name": "",
          "type": "uint256"
        }
      ],
      "stateMutability": "view",
      "type": "function",
      "constant": true
    },
    {
      "inputs": [
        {
          "internalType": "uint256",
          "name": "OfferId",
          "type": "uint256"
        }
      ],
      "name": "getOfferPrice",
      "outputs": [
        {
          "internalType": "uint256",
          "name": "",
          "type": "uint256"
        }
      ],
      "stateMutability": "view",
      "type": "function",
      "constant": true
    },
    {
      "inputs": [
        {
          "internalType": "uint256",
          "name": "tokenId",
          "type": "uint256"
        }
      ],
      "name": "getOwner",
      "outputs": [
        {
          "internalType": "address",
          "name": "",
          "type": "address"
        }
      ],
      "stateMutability": "view",
      "type": "function",
      "constant": true
    }
  ],
  "bytecode": "0x6080604052655af3107a4000600355600060055534801561001f57600080fd5b50600160008190555033600460006101000a81548173ffffffffffffffffffffffffffffffffffffffff021916908373ffffffffffffffffffffffffffffffffffffffff160217905550611fc1806100786000396000f3fe6080604052600436106100e85760003560e01c806381257bd51161008a578063da958ca711610059578063da958ca7146102c8578063e4c7f2f9146102f3578063efa848be14610330578063f7ebb19914610371576100e8565b806381257bd51461020e578063b8fe6abe14610237578063c41a360a14610262578063d686b1051461029f576100e8565b80633ee992ee116100c65780633ee992ee14610171578063444bc37f1461019c57806360865906146101c75780637d0fe1ae146101f2576100e8565b80630da689d8146100ed5780632b86ae381461010957806331d0359414610134575b600080fd5b6101076004803603810190610102919061178b565b61039a565b005b34801561011557600080fd5b5061011e6106c7565b60405161012b91906117ed565b60405180910390f35b34801561014057600080fd5b5061015b60048036038101906101569190611808565b6106cd565b60405161016891906117ed565b60405180910390f35b34801561017d57600080fd5b506101866106ed565b60405161019391906117ed565b60405180910390f35b3480156101a857600080fd5b506101b16106f7565b6040516101be9190611993565b60405180910390f35b3480156101d357600080fd5b506101dc610943565b6040516101e99190611993565b60405180910390f35b61020c600480360381019061020791906119b5565b610b3d565b005b34801561021a57600080fd5b50610235600480360381019061023091906119f5565b610c5c565b005b34801561024357600080fd5b5061024c610e41565b60405161025991906117ed565b60405180910390f35b34801561026e57600080fd5b5061028960048036038101906102849190611808565b610e4b565b6040516102969190611a44565b60405180910390f35b3480156102ab57600080fd5b506102c660048036038101906102c191906119f5565b610e8b565b005b3480156102d457600080fd5b506102dd610ff5565b6040516102ea9190611993565b60405180910390f35b3480156102ff57600080fd5b5061031a60048036038101906103159190611808565b6112c1565b6040516103279190611b76565b60405180910390f35b34801561033c57600080fd5b5061035760048036038101906103529190611808565b611440565b604051610368959493929190611ba7565b60405180910390f35b34801561037d57600080fd5b50610398600480360381019061039391906119b5565b6114a3565b005b6002600054036103df576040517f08c379a00000000000000000000000000000000000000000000000000000000081526004016103d690611c57565b60405180910390fd5b6002600081905550600060066000838152602001908152602001600020905034600760008681526020019081526020016000206002015414801561048457506007600085815260200190815260200160002060010160009054906101000a900473ffffffffffffffffffffffffffffffffffffffff1673ffffffffffffffffffffffffffffffffffffffff163373ffffffffffffffffffffffffffffffffffffffff16145b61048d57600080fd5b60003390508160020160009054906101000a900473ffffffffffffffffffffffffffffffffffffffff1673ffffffffffffffffffffffffffffffffffffffff166108fc349081150290604051600060405180830381858888f193505050501580156104fc573d6000803e3d6000fd5b508373ffffffffffffffffffffffffffffffffffffffff166323b872dd8360020160009054906101000a900473ffffffffffffffffffffffffffffffffffffffff168385600101546040518463ffffffff1660e01b815260040161056293929190611cd6565b600060405180830381600087803b15801561057c57600080fd5b505af1158015610590573d6000803e3d6000fd5b50505050600460009054906101000a900473ffffffffffffffffffffffffffffffffffffffff1673ffffffffffffffffffffffffffffffffffffffff166108fc6003549081150290604051600060405180830381858888f193505050501580156105fe573d6000803e3d6000fd5b50808260020160006101000a81548173ffffffffffffffffffffffffffffffffffffffff021916908373ffffffffffffffffffffffffffffffffffffffff16021790555060008260020160146101000a81548160ff0219169083151502179055506001600081548092919061067290611d3c565b91905055507f5dd8e1e242da4e6a1eb813af19c40fa14a5415ed76ce1bf1b98e40498acb37f084836001015483346040516106b09493929190611d84565b60405180910390a150506001600081905550505050565b60035481565b600060076000838152602001908152602001600020600201549050919050565b6000600554905090565b6060600060025490506000805b82811015610763576006600060018361071d9190611dc9565b815260200190815260200160002060020160149054906101000a900460ff161561075057818061074c90611d3c565b9250505b808061075b90611d3c565b915050610704565b5060008167ffffffffffffffff8111156107805761077f611e1f565b5b6040519080825280602002602001820160405280156107b957816020015b6107a6611655565b81526020019060019003908161079e5790505b5090506000805b8481101561093857600660006001836107d99190611dc9565b815260200190815260200160002060020160149054906101000a900460ff1615610925576006600060018361080e9190611dc9565b81526020019081526020016000206040518060800160405290816000820160009054906101000a900473ffffffffffffffffffffffffffffffffffffffff1673ffffffffffffffffffffffffffffffffffffffff1673ffffffffffffffffffffffffffffffffffffffff168152602001600182015481526020016002820160009054906101000a900473ffffffffffffffffffffffffffffffffffffffff1673ffffffffffffffffffffffffffffffffffffffff1673ffffffffffffffffffffffffffffffffffffffff1681526020016002820160149054906101000a900460ff16151515158152505083838151811061090b5761090a611e4e565b5b6020026020010181905250818061092190611d3c565b9250505b808061093090611d3c565b9150506107c0565b508194505050505090565b60606000600254905060006001548261095c9190611e7d565b905060008167ffffffffffffffff81111561097a57610979611e1f565b5b6040519080825280602002602001820160405280156109b357816020015b6109a0611655565b8152602001906001900390816109985790505b5090506000805b84811015610b3257600660006001836109d39190611dc9565b815260200190815260200160002060020160149054906101000a900460ff1615610b1f5760066000600183610a089190611dc9565b81526020019081526020016000206040518060800160405290816000820160009054906101000a900473ffffffffffffffffffffffffffffffffffffffff1673ffffffffffffffffffffffffffffffffffffffff1673ffffffffffffffffffffffffffffffffffffffff168152602001600182015481526020016002820160009054906101000a900473ffffffffffffffffffffffffffffffffffffffff1673ffffffffffffffffffffffffffffffffffffffff1673ffffffffffffffffffffffffffffffffffffffff1681526020016002820160149054906101000a900460ff161515151581525050838381518110610b0557610b04611e4e565b5b60200260200101819052508180610b1b90611d3c565b9250505b8080610b2a90611d3c565b9150506109ba565b508194505050505090565b600260005403610b82576040517f08c379a0000000000000000000000000000000000000000000000000000000008152600401610b7990611c57565b60405180910390fd5b60026000819055506003543414610bce576040517f08c379a0000000000000000000000000000000000000000000000000000000008152600401610bc590611efd565b60405180910390fd5b60016006600083815260200190815260200160002060020160146101000a81548160ff02191690831515021790555060026000815480929190610c1090611d3c565b91905055507ff87ada0d3a22f43511b71d7c1452fd0ed19b1b42a430233abcbb1df00296242b828233604051610c4893929190611f1d565b60405180910390a160016000819055505050565b600260005403610ca1576040517f08c379a0000000000000000000000000000000000000000000000000000000008152600401610c9890611c57565b60405180910390fd5b6002600081905550600060066000838152602001908152602001600020905060006007600085815260200190815260200160002090508160020160009054906101000a900473ffffffffffffffffffffffffffffffffffffffff1673ffffffffffffffffffffffffffffffffffffffff163373ffffffffffffffffffffffffffffffffffffffff16148015610d8657508060010160009054906101000a900473ffffffffffffffffffffffffffffffffffffffff1673ffffffffffffffffffffffffffffffffffffffff163373ffffffffffffffffffffffffffffffffffffffff1614155b610d8f57600080fd5b60018160040160006101000a81548160ff0219169083151502179055507ff09dc5f4fef525ad523a2f4597129f38acae0e36bfde228eca914788d6da6ba36007600086815260200190815260200160002060010160009054906101000a900473ffffffffffffffffffffffffffffffffffffffff16846007600088815260200190815260200160002060020154604051610e2b93929190611f54565b60405180910390a1505060016000819055505050565b6000600354905090565b60006006600083815260200190815260200160002060020160009054906101000a900473ffffffffffffffffffffffffffffffffffffffff169050919050565b600115156006600084815260200190815260200160002060020160149054906101000a900460ff16151514610ebf57600080fd5b6040518060a0016040528060055481526020013373ffffffffffffffffffffffffffffffffffffffff168152602001828152602001838152602001600015158152506007600060055481526020019081526020016000206000820151816000015560208201518160010160006101000a81548173ffffffffffffffffffffffffffffffffffffffff021916908373ffffffffffffffffffffffffffffffffffffffff160217905550604082015181600201556060820151816003015560808201518160040160006101000a81548160ff02191690831515021790555090505060056000815480929190610fb190611d3c565b91905055507f2d66503c1c55be9fec10a7492e460d8cb9a22c07fb6713145c1382133c3b6b3e338383604051610fe993929190611f54565b60405180910390a15050565b6060600060025490506000805b828110156110a1573373ffffffffffffffffffffffffffffffffffffffff16600660006001846110329190611dc9565b815260200190815260200160002060020160009054906101000a900473ffffffffffffffffffffffffffffffffffffffff1673ffffffffffffffffffffffffffffffffffffffff160361108e57818061108a90611d3c565b9250505b808061109990611d3c565b915050611002565b5060008167ffffffffffffffff8111156110be576110bd611e1f565b5b6040519080825280602002602001820160405280156110f757816020015b6110e4611655565b8152602001906001900390816110dc5790505b5090506000805b848110156112b6573373ffffffffffffffffffffffffffffffffffffffff166006600060018461112e9190611dc9565b815260200190815260200160002060020160009054906101000a900473ffffffffffffffffffffffffffffffffffffffff1673ffffffffffffffffffffffffffffffffffffffff16036112a3576006600060018361118c9190611dc9565b81526020019081526020016000206040518060800160405290816000820160009054906101000a900473ffffffffffffffffffffffffffffffffffffffff1673ffffffffffffffffffffffffffffffffffffffff1673ffffffffffffffffffffffffffffffffffffffff168152602001600182015481526020016002820160009054906101000a900473ffffffffffffffffffffffffffffffffffffffff1673ffffffffffffffffffffffffffffffffffffffff1673ffffffffffffffffffffffffffffffffffffffff1681526020016002820160149054906101000a900460ff16151515158152505083838151811061128957611288611e4e565b5b6020026020010181905250818061129f90611d3c565b9250505b80806112ae90611d3c565b9150506110fe565b508194505050505090565b6060600060055467ffffffffffffffff8111156112e1576112e0611e1f565b5b60405190808252806020026020018201604052801561131a57816020015b6113076116ab565b8152602001906001900390816112ff5790505b5090506000805b600554811015611435578460076000838152602001908152602001600020600301540361142257600760008281526020019081526020016000206040518060a0016040529081600082015481526020016001820160009054906101000a900473ffffffffffffffffffffffffffffffffffffffff1673ffffffffffffffffffffffffffffffffffffffff1673ffffffffffffffffffffffffffffffffffffffff16815260200160028201548152602001600382015481526020016004820160009054906101000a900460ff16151515158152505083838151811061140857611407611e4e565b5b6020026020010181905250818061141e90611d3c565b9250505b808061142d90611d3c565b915050611321565b508192505050919050565b60076020528060005260406000206000915090508060000154908060010160009054906101000a900473ffffffffffffffffffffffffffffffffffffffff16908060020154908060030154908060040160009054906101000a900460ff16905085565b6002600054036114e8576040517f08c379a00000000000000000000000000000000000000000000000000000000081526004016114df90611c57565b60405180910390fd5b600260008190555060405180608001604052808373ffffffffffffffffffffffffffffffffffffffff1681526020018281526020013373ffffffffffffffffffffffffffffffffffffffff168152602001600015158152506006600083815260200190815260200160002060008201518160000160006101000a81548173ffffffffffffffffffffffffffffffffffffffff021916908373ffffffffffffffffffffffffffffffffffffffff1602179055506020820151816001015560408201518160020160006101000a81548173ffffffffffffffffffffffffffffffffffffffff021916908373ffffffffffffffffffffffffffffffffffffffff16021790555060608201518160020160146101000a81548160ff0219169083151502179055509050507f6827f47801d6843a8f4464d1f44f6a35427e10938356e80e081afa7c1436b47682823360405161164193929190611f1d565b60405180910390a160016000819055505050565b6040518060800160405280600073ffffffffffffffffffffffffffffffffffffffff16815260200160008152602001600073ffffffffffffffffffffffffffffffffffffffff1681526020016000151581525090565b6040518060a0016040528060008152602001600073ffffffffffffffffffffffffffffffffffffffff16815260200160008152602001600081526020016000151581525090565b600080fd5b6000819050919050565b61170a816116f7565b811461171557600080fd5b50565b60008135905061172781611701565b92915050565b600073ffffffffffffffffffffffffffffffffffffffff82169050919050565b60006117588261172d565b9050919050565b6117688161174d565b811461177357600080fd5b50565b6000813590506117858161175f565b92915050565b6000806000606084860312156117a4576117a36116f2565b5b60006117b286828701611718565b93505060206117c386828701611776565b92505060406117d486828701611718565b9150509250925092565b6117e7816116f7565b82525050565b600060208201905061180260008301846117de565b92915050565b60006020828403121561181e5761181d6116f2565b5b600061182c84828501611718565b91505092915050565b600081519050919050565b600082825260208201905092915050565b6000819050602082019050919050565b61186a8161174d565b82525050565b611879816116f7565b82525050565b600061188a8261172d565b9050919050565b61189a8161187f565b82525050565b60008115159050919050565b6118b5816118a0565b82525050565b6080820160008201516118d16000850182611861565b5060208201516118e46020850182611870565b5060408201516118f76040850182611891565b50606082015161190a60608501826118ac565b50505050565b600061191c83836118bb565b60808301905092915050565b6000602082019050919050565b600061194082611835565b61194a8185611840565b935061195583611851565b8060005b8381101561198657815161196d8882611910565b975061197883611928565b925050600181019050611959565b5085935050505092915050565b600060208201905081810360008301526119ad8184611935565b905092915050565b600080604083850312156119cc576119cb6116f2565b5b60006119da85828601611776565b92505060206119eb85828601611718565b9150509250929050565b60008060408385031215611a0c57611a0b6116f2565b5b6000611a1a85828601611718565b9250506020611a2b85828601611718565b9150509250929050565b611a3e8161174d565b82525050565b6000602082019050611a596000830184611a35565b92915050565b600081519050919050565b600082825260208201905092915050565b6000819050602082019050919050565b60a082016000820151611aa16000850182611870565b506020820151611ab46020850182611861565b506040820151611ac76040850182611870565b506060820151611ada6060850182611870565b506080820151611aed60808501826118ac565b50505050565b6000611aff8383611a8b565b60a08301905092915050565b6000602082019050919050565b6000611b2382611a5f565b611b2d8185611a6a565b9350611b3883611a7b565b8060005b83811015611b69578151611b508882611af3565b9750611b5b83611b0b565b925050600181019050611b3c565b5085935050505092915050565b60006020820190508181036000830152611b908184611b18565b905092915050565b611ba1816118a0565b82525050565b600060a082019050611bbc60008301886117de565b611bc96020830187611a35565b611bd660408301866117de565b611be360608301856117de565b611bf06080830184611b98565b9695505050505050565b600082825260208201905092915050565b7f5265656e7472616e637947756172643a207265656e7472616e742063616c6c00600082015250565b6000611c41601f83611bfa565b9150611c4c82611c0b565b602082019050919050565b60006020820190508181036000830152611c7081611c34565b9050919050565b6000819050919050565b6000611c9c611c97611c928461172d565b611c77565b61172d565b9050919050565b6000611cae82611c81565b9050919050565b6000611cc082611ca3565b9050919050565b611cd081611cb5565b82525050565b6000606082019050611ceb6000830186611cc7565b611cf86020830185611cc7565b611d0560408301846117de565b949350505050565b7f4e487b7100000000000000000000000000000000000000000000000000000000600052601160045260246000fd5b6000611d47826116f7565b91507fffffffffffffffffffffffffffffffffffffffffffffffffffffffffffffffff8203611d7957611d78611d0d565b5b600182019050919050565b6000608082019050611d996000830187611a35565b611da660208301866117de565b611db36040830185611cc7565b611dc060608301846117de565b95945050505050565b6000611dd4826116f7565b9150611ddf836116f7565b9250827fffffffffffffffffffffffffffffffffffffffffffffffffffffffffffffffff03821115611e1457611e13611d0d565b5b828201905092915050565b7f4e487b7100000000000000000000000000000000000000000000000000000000600052604160045260246000fd5b7f4e487b7100000000000000000000000000000000000000000000000000000000600052603260045260246000fd5b6000611e88826116f7565b9150611e93836116f7565b925082821015611ea657611ea5611d0d565b5b828203905092915050565b7f4e6f7420656e6f75676820657468657220666f72206c697374696e6720666565600082015250565b6000611ee7602083611bfa565b9150611ef282611eb1565b602082019050919050565b60006020820190508181036000830152611f1681611eda565b9050919050565b6000606082019050611f326000830186611a35565b611f3f60208301856117de565b611f4c6040830184611a35565b949350505050565b6000606082019050611f696000830186611a35565b611f7660208301856117de565b611f8360408301846117de565b94935050505056fea2646970667358221220f85742f00f242e68b5346672e312a276b54168267a15b66590371b5e45b32ab764736f6c634300080d0033",
  "immutableReferences": {},
  "source": "// SPDX-License-Identifier: MIT\npragma solidity ^0.8.13;\n\nimport \"@openzeppelin/contracts/token/ERC721/ERC721.sol\";\nimport \"@openzeppelin/contracts/security/ReentrancyGuard.sol\";\n\ncontract RightsManagement is ReentrancyGuard {\n  uint256 _ContractsSold;\n  uint256 _ContractCount;\n  uint256 public LISTING_FEE = 0.0001 ether;\n  address payable private _marketOwner;\n  uint256 totalOffers = 0;\n\n  mapping(uint256 => Audio) private _idToAudio;\n  mapping(uint256 => Offers) public _AudioOffers;\n\n  struct Offers {\n    uint offerId;\n    address offerer;\n    uint256 offerPrice;\n    uint256 tokenId;\n    bool accepted;\n  }\n\n  struct Audio {\n    address AudioContract;\n    uint256 tokenId;\n    address payable owner;\n    bool listed;\n  }\n\n  event AudioAdded(\n    address AudioContract,\n    uint256 tokenId,\n    address owner\n  );\n  event AudioListed(\n    address AudioContract,\n    uint256 tokenId,\n    address owner\n  );\n  event offerMade(\n    address offerer,\n    uint256 tokenId,\n    uint256 offerPrice\n  );\n  event offerAccepted(\n    address offerer,\n    uint256 tokenId,\n    uint256 offerPrice\n  );\n  event AudioSold(\n    address AudioContract,\n    uint256 tokenId,\n    address seller,\n    uint256 price\n  );\n\n  constructor() {\n    _marketOwner = payable(msg.sender);\n  }\n\n  // List the Audio on the marketplace\n  function addAudio(address _AudioContract, uint256 _tokenId) public nonReentrant {\n    _idToAudio[_tokenId] = Audio(\n      _AudioContract,\n      _tokenId, \n      payable(msg.sender),\n      false\n    );\n\n    emit AudioAdded(_AudioContract, _tokenId, msg.sender);\n  }\n\n\n// ########################################################################\n\n  // List the Audio on the marketplace\n  function listAudio(address _AudioContract, uint256 _tokenId) public payable nonReentrant {\n    require(msg.value == LISTING_FEE, \"Not enough ether for listing fee\");\n    _idToAudio[_tokenId].listed = true;\n    _ContractCount++;\n\n    emit AudioListed(_AudioContract, _tokenId, msg.sender);\n  }\n\n// ########################################################################\n\n  function bidAudio(uint256 _tokenId, uint256 _offerPrice) public {\n    require(_idToAudio[_tokenId].listed == true);\n    _AudioOffers[totalOffers] = Offers(\n        totalOffers,\n        msg.sender,\n        _offerPrice,\n        _tokenId,\n        false\n    );\n    totalOffers++;\n    emit offerMade(msg.sender, _tokenId, _offerPrice);\n  }\n\n// ########################################################################\n\n  function acceptOffer(uint256 offerId, uint256 _tokenId) public nonReentrant {\n    Audio storage acceptedAudio = _idToAudio[_tokenId];\n    Offers storage _offer = _AudioOffers[offerId];\n    require(msg.sender == acceptedAudio.owner && msg.sender != _offer.offerer);\n    _offer.accepted = true;\n    emit offerAccepted(_AudioOffers[offerId].offerer, _tokenId, _AudioOffers[offerId].offerPrice);\n  }\n\n// ########################################################################\n\n  function buyAudio(uint offerId, address _audioContract, uint256 _tokenId) public payable nonReentrant {\n    Audio storage audio = _idToAudio[_tokenId];\n    require(_AudioOffers[offerId].offerPrice == msg.value && msg.sender == _AudioOffers[offerId].offerer);\n    address payable buyer = payable(msg.sender);\n    payable(audio.owner).transfer(msg.value);\n    IERC721(_audioContract).transferFrom(audio.owner, buyer, audio.tokenId);\n    _marketOwner.transfer(LISTING_FEE);\n    audio.owner = buyer;\n    audio.listed = false;\n\n    _ContractsSold++;\n    emit AudioSold(_audioContract, audio.tokenId, buyer, msg.value);\n  }\n\n// ########################################################################\n// Helper Functions \n\n  function getListingFee() public view returns (uint256) {\n    return LISTING_FEE;\n  }\n\n  function getListedOffers(uint256 _tokenId) public view returns (Offers[] memory) {\n    Offers[] memory offers = new Offers[](totalOffers);\n    uint j = 0;\n    for (uint i = 0; i < totalOffers; i++) {\n        if (_AudioOffers[i].tokenId == _tokenId) {\n            offers[j] = _AudioOffers[i];\n            j++;\n          }\n    }\n    return offers;\n  }\n\n  function getListedAudio() public view returns (Audio[] memory) {\n    uint256 audioCount = _ContractCount;\n    uint256 unsoldAudioCount = audioCount - _ContractsSold;\n\n    Audio[] memory audio = new Audio[](unsoldAudioCount);\n    uint Index = 0;\n    for (uint i = 0; i < audioCount; i++) {\n      if (_idToAudio[i + 1].listed) {\n        audio[Index] = _idToAudio[i + 1];\n        Index++;\n      }\n    }\n    return audio;\n  }\n\n  function getMyAudio() public view returns (Audio[] memory) {\n    uint audioCount = _ContractCount;\n    uint myAudioCount = 0;\n    for (uint i = 0; i < audioCount; i++) {\n      if (_idToAudio[i + 1].owner == msg.sender) {\n        myAudioCount++;\n      }\n    }\n\n    Audio[] memory audio = new Audio[](myAudioCount);\n    uint Index = 0;\n    for (uint i = 0; i < audioCount; i++) {\n      if (_idToAudio[i + 1].owner == msg.sender) {\n        audio[Index] = _idToAudio[i + 1];\n        Index++;\n      }\n    }\n    return audio;\n  }\n\n  function getMyListedAudio() public view returns (Audio[] memory) {\n    uint audioCount = _ContractCount;\n    uint myListedAudioCount = 0;\n    for (uint i = 0; i < audioCount; i++) {\n      if (_idToAudio[i + 1].listed) {\n        myListedAudioCount++;\n      }\n    }\n\n    Audio[] memory audio = new Audio[](myListedAudioCount);\n    uint Index = 0;\n    for (uint i = 0; i < audioCount; i++) {\n      if (_idToAudio[i + 1].listed) {\n        audio[Index] = _idToAudio[i + 1];\n        Index++;\n      }\n    }\n    return audio;\n  }\n\n  function getOffers() public view returns (uint) {\n    return totalOffers;\n  }\n\n  function getOfferPrice(uint OfferId) public view returns (uint) {\n    return _AudioOffers[OfferId].offerPrice;\n  }\n\n  function getOwner(uint tokenId) public view returns (address) {\n    return _idToAudio[tokenId].owner;\n  }\n}",
  "sourcePath": "/Users/hoshang/Documents/Uni/COMP6452/IP9/contracts/RightsManagement.sol",
  "compiler": {
    "name": "solc",
    "version": "0.8.13+commit.abaa5c0e.Emscripten.clang"
  },
  "schemaVersion": "3.4.8",
  "updatedAt": "2022-07-28T02:54:18.884Z",
  "networkType": "ethereum",
  "devdoc": {
    "kind": "dev",
    "methods": {},
    "version": 1
  },
  "userdoc": {
    "kind": "user",
    "methods": {},
    "version": 1
  }
}