{
  "contractName": "Marketplace",
  "abi": [
    {
      "inputs": [],
      "stateMutability": "nonpayable",
      "type": "constructor"
    },
    {
      "anonymous": false,
      "inputs": [
        {
          "indexed": false,
          "internalType": "address",
          "name": "nftContract",
          "type": "address"
        },
        {
          "indexed": false,
          "internalType": "uint256",
          "name": "tokenId",
          "type": "uint256"
        },
        {
          "indexed": false,
          "internalType": "address",
          "name": "seller",
          "type": "address"
        },
        {
          "indexed": false,
          "internalType": "address",
          "name": "owner",
          "type": "address"
        },
        {
          "indexed": false,
          "internalType": "uint256",
          "name": "price",
          "type": "uint256"
        }
      ],
      "name": "NFTListed",
      "type": "event"
    },
    {
      "anonymous": false,
      "inputs": [
        {
          "indexed": false,
          "internalType": "address",
          "name": "nftContract",
          "type": "address"
        },
        {
          "indexed": false,
          "internalType": "uint256",
          "name": "tokenId",
          "type": "uint256"
        },
        {
          "indexed": false,
          "internalType": "address",
          "name": "seller",
          "type": "address"
        },
        {
          "indexed": false,
          "internalType": "address",
          "name": "owner",
          "type": "address"
        },
        {
          "indexed": false,
          "internalType": "uint256",
          "name": "price",
          "type": "uint256"
        }
      ],
      "name": "NFTSold",
      "type": "event"
    },
    {
      "inputs": [],
      "name": "LISTING_FEE",
      "outputs": [
        {
          "internalType": "uint256",
          "name": "",
          "type": "uint256"
        }
      ],
      "stateMutability": "view",
      "type": "function",
      "constant": true
    },
    {
      "inputs": [
        {
          "internalType": "address",
          "name": "_nftContract",
          "type": "address"
        },
        {
          "internalType": "uint256",
          "name": "_tokenId",
          "type": "uint256"
        },
        {
          "internalType": "uint256",
          "name": "_price",
          "type": "uint256"
        }
      ],
      "name": "listNft",
      "outputs": [],
      "stateMutability": "payable",
      "type": "function",
      "payable": true
    },
    {
      "inputs": [
        {
          "internalType": "address",
          "name": "_nftContract",
          "type": "address"
        },
        {
          "internalType": "uint256",
          "name": "_tokenId",
          "type": "uint256"
        },
        {
          "internalType": "uint256",
          "name": "_price",
          "type": "uint256"
        }
      ],
      "name": "resellNft",
      "outputs": [],
      "stateMutability": "payable",
      "type": "function",
      "payable": true
    },
    {
      "inputs": [
        {
          "internalType": "address",
          "name": "_nftContract",
          "type": "address"
        },
        {
          "internalType": "uint256",
          "name": "_tokenId",
          "type": "uint256"
        }
      ],
      "name": "buyNft",
      "outputs": [],
      "stateMutability": "payable",
      "type": "function",
      "payable": true
    },
    {
      "inputs": [],
      "name": "getListingFee",
      "outputs": [
        {
          "internalType": "uint256",
          "name": "",
          "type": "uint256"
        }
      ],
      "stateMutability": "view",
      "type": "function",
      "constant": true
    },
    {
      "inputs": [],
      "name": "getListedNfts",
      "outputs": [
        {
          "components": [
            {
              "internalType": "address",
              "name": "nftContract",
              "type": "address"
            },
            {
              "internalType": "uint256",
              "name": "tokenId",
              "type": "uint256"
            },
            {
              "internalType": "address payable",
              "name": "seller",
              "type": "address"
            },
            {
              "internalType": "address payable",
              "name": "owner",
              "type": "address"
            },
            {
              "internalType": "uint256",
              "name": "price",
              "type": "uint256"
            },
            {
              "internalType": "bool",
              "name": "listed",
              "type": "bool"
            }
          ],
          "internalType": "struct Marketplace.NFT[]",
          "name": "",
          "type": "tuple[]"
        }
      ],
      "stateMutability": "view",
      "type": "function",
      "constant": true
    },
    {
      "inputs": [],
      "name": "getMyNfts",
      "outputs": [
        {
          "components": [
            {
              "internalType": "address",
              "name": "nftContract",
              "type": "address"
            },
            {
              "internalType": "uint256",
              "name": "tokenId",
              "type": "uint256"
            },
            {
              "internalType": "address payable",
              "name": "seller",
              "type": "address"
            },
            {
              "internalType": "address payable",
              "name": "owner",
              "type": "address"
            },
            {
              "internalType": "uint256",
              "name": "price",
              "type": "uint256"
            },
            {
              "internalType": "bool",
              "name": "listed",
              "type": "bool"
            }
          ],
          "internalType": "struct Marketplace.NFT[]",
          "name": "",
          "type": "tuple[]"
        }
      ],
      "stateMutability": "view",
      "type": "function",
      "constant": true
    },
    {
      "inputs": [],
      "name": "getMyListedNfts",
      "outputs": [
        {
          "components": [
            {
              "internalType": "address",
              "name": "nftContract",
              "type": "address"
            },
            {
              "internalType": "uint256",
              "name": "tokenId",
              "type": "uint256"
            },
            {
              "internalType": "address payable",
              "name": "seller",
              "type": "address"
            },
            {
              "internalType": "address payable",
              "name": "owner",
              "type": "address"
            },
            {
              "internalType": "uint256",
              "name": "price",
              "type": "uint256"
            },
            {
              "internalType": "bool",
              "name": "listed",
              "type": "bool"
            }
          ],
          "internalType": "struct Marketplace.NFT[]",
          "name": "",
          "type": "tuple[]"
        }
      ],
      "stateMutability": "view",
      "type": "function",
      "constant": true
    }
  ],
  "bytecode": "0x6080604052655af3107a400060035534801561001a57600080fd5b50600160008190555033600460006101000a81548173ffffffffffffffffffffffffffffffffffffffff021916908373ffffffffffffffffffffffffffffffffffffffff160217905550611c77806100736000396000f3fe60806040526004361061007b5760003560e01c80634ddf4f8f1161004e5780634ddf4f8f1461011d5780638d6cb3fb14610139578063b8fe6abe14610164578063c922b17c1461018f5761007b565b8063047b07bf146100805780631f4cc4db146100ab5780632b86ae38146100d657806334f5b62414610101575b600080fd5b34801561008c57600080fd5b506100956101ab565b6040516100a291906115d1565b60405180910390f35b3480156100b757600080fd5b506100c06104de565b6040516100cd91906115d1565b60405180910390f35b3480156100e257600080fd5b506100eb610883565b6040516100f89190611602565b60405180910390f35b61011b6004803603810190610116919061167a565b610889565b005b610137600480360381019061013291906116cd565b610aa3565b005b34801561014557600080fd5b5061014e610d7b565b60405161015b91906115d1565b60405180910390f35b34801561017057600080fd5b50610179610fe3565b6040516101869190611602565b60405180910390f35b6101a960048036038101906101a4919061167a565b610fed565b005b606060006101b96002611317565b90506000805b8281101561025e573373ffffffffffffffffffffffffffffffffffffffff16600560006001846101ef919061173c565b815260200190815260200160002060030160009054906101000a900473ffffffffffffffffffffffffffffffffffffffff1673ffffffffffffffffffffffffffffffffffffffff160361024b57818061024790611792565b9250505b808061025690611792565b9150506101bf565b5060008167ffffffffffffffff81111561027b5761027a6117da565b5b6040519080825280602002602001820160405280156102b457816020015b6102a1611397565b8152602001906001900390816102995790505b5090506000805b848110156104d3573373ffffffffffffffffffffffffffffffffffffffff16600560006001846102eb919061173c565b815260200190815260200160002060030160009054906101000a900473ffffffffffffffffffffffffffffffffffffffff1673ffffffffffffffffffffffffffffffffffffffff16036104c05760056000600183610349919061173c565b81526020019081526020016000206040518060c00160405290816000820160009054906101000a900473ffffffffffffffffffffffffffffffffffffffff1673ffffffffffffffffffffffffffffffffffffffff1673ffffffffffffffffffffffffffffffffffffffff168152602001600182015481526020016002820160009054906101000a900473ffffffffffffffffffffffffffffffffffffffff1673ffffffffffffffffffffffffffffffffffffffff1673ffffffffffffffffffffffffffffffffffffffff1681526020016003820160009054906101000a900473ffffffffffffffffffffffffffffffffffffffff1673ffffffffffffffffffffffffffffffffffffffff1673ffffffffffffffffffffffffffffffffffffffff168152602001600482015481526020016005820160009054906101000a900460ff1615151515815250508383815181106104a6576104a5611809565b5b602002602001018190525081806104bc90611792565b9250505b80806104cb90611792565b9150506102bb565b508194505050505090565b606060006104ec6002611317565b90506000805b828110156105ca573373ffffffffffffffffffffffffffffffffffffffff1660056000600184610522919061173c565b815260200190815260200160002060020160009054906101000a900473ffffffffffffffffffffffffffffffffffffffff1673ffffffffffffffffffffffffffffffffffffffff161480156105a3575060056000600183610583919061173c565b815260200190815260200160002060050160009054906101000a900460ff165b156105b75781806105b390611792565b9250505b80806105c290611792565b9150506104f2565b5060008167ffffffffffffffff8111156105e7576105e66117da565b5b60405190808252806020026020018201604052801561062057816020015b61060d611397565b8152602001906001900390816106055790505b5090506000805b84811015610878573373ffffffffffffffffffffffffffffffffffffffff1660056000600184610657919061173c565b815260200190815260200160002060020160009054906101000a900473ffffffffffffffffffffffffffffffffffffffff1673ffffffffffffffffffffffffffffffffffffffff161480156106d85750600560006001836106b8919061173c565b815260200190815260200160002060050160009054906101000a900460ff165b1561086557600560006001836106ee919061173c565b81526020019081526020016000206040518060c00160405290816000820160009054906101000a900473ffffffffffffffffffffffffffffffffffffffff1673ffffffffffffffffffffffffffffffffffffffff1673ffffffffffffffffffffffffffffffffffffffff168152602001600182015481526020016002820160009054906101000a900473ffffffffffffffffffffffffffffffffffffffff1673ffffffffffffffffffffffffffffffffffffffff1673ffffffffffffffffffffffffffffffffffffffff1681526020016003820160009054906101000a900473ffffffffffffffffffffffffffffffffffffffff1673ffffffffffffffffffffffffffffffffffffffff1673ffffffffffffffffffffffffffffffffffffffff168152602001600482015481526020016005820160009054906101000a900460ff16151515158152505083838151811061084b5761084a611809565b5b6020026020010181905250818061086190611792565b9250505b808061087090611792565b915050610627565b508194505050505090565b60035481565b6002600054036108ce576040517f08c379a00000000000000000000000000000000000000000000000000000000081526004016108c590611895565b60405180910390fd5b6002600081905550600354341461091a576040517f08c379a000000000000000000000000000000000000000000000000000000000815260040161091190611901565b60405180910390fd5b8273ffffffffffffffffffffffffffffffffffffffff166323b872dd3330856040518463ffffffff1660e01b815260040161095793929190611930565b600060405180830381600087803b15801561097157600080fd5b505af1158015610985573d6000803e3d6000fd5b505050506000600560008481526020019081526020016000209050338160020160006101000a81548173ffffffffffffffffffffffffffffffffffffffff021916908373ffffffffffffffffffffffffffffffffffffffff160217905550308160030160006101000a81548173ffffffffffffffffffffffffffffffffffffffff021916908373ffffffffffffffffffffffffffffffffffffffff16021790555060018160050160006101000a81548160ff021916908315150217905550818160040181905550610a566001611325565b7fa0c6c0d02d86fdacecbaa5fdf5894bab204e31a778250474108540733a9b8d198484333086604051610a8d959493929190611967565b60405180910390a1506001600081905550505050565b600260005403610ae8576040517f08c379a0000000000000000000000000000000000000000000000000000000008152600401610adf90611895565b60405180910390fd5b600260008190555060006005600083815260200190815260200160002090508060040154341015610b4e576040517f08c379a0000000000000000000000000000000000000000000000000000000008152600401610b4590611a2c565b60405180910390fd5b60003390508160020160009054906101000a900473ffffffffffffffffffffffffffffffffffffffff1673ffffffffffffffffffffffffffffffffffffffff166108fc349081150290604051600060405180830381858888f19350505050158015610bbd573d6000803e3d6000fd5b508373ffffffffffffffffffffffffffffffffffffffff166323b872dd308385600101546040518463ffffffff1660e01b8152600401610bff93929190611aab565b600060405180830381600087803b158015610c1957600080fd5b505af1158015610c2d573d6000803e3d6000fd5b50505050600460009054906101000a900473ffffffffffffffffffffffffffffffffffffffff1673ffffffffffffffffffffffffffffffffffffffff166108fc6003549081150290604051600060405180830381858888f19350505050158015610c9b573d6000803e3d6000fd5b50808260030160006101000a81548173ffffffffffffffffffffffffffffffffffffffff021916908373ffffffffffffffffffffffffffffffffffffffff16021790555060008260050160006101000a81548160ff021916908315150217905550610d066001611381565b7f16f1dbd97e6bf646d429ed186cce832f1f7fd9907814293b83181e9970ab7bd28483600101548460020160009054906101000a900473ffffffffffffffffffffffffffffffffffffffff168434604051610d65959493929190611ae2565b60405180910390a1505060016000819055505050565b60606000610d896002611317565b90506000610d976001611317565b82610da29190611b35565b905060008167ffffffffffffffff811115610dc057610dbf6117da565b5b604051908082528060200260200182016040528015610df957816020015b610de6611397565b815260200190600190039081610dde5790505b5090506000805b84811015610fd85760056000600183610e19919061173c565b815260200190815260200160002060050160009054906101000a900460ff1615610fc55760056000600183610e4e919061173c565b81526020019081526020016000206040518060c00160405290816000820160009054906101000a900473ffffffffffffffffffffffffffffffffffffffff1673ffffffffffffffffffffffffffffffffffffffff1673ffffffffffffffffffffffffffffffffffffffff168152602001600182015481526020016002820160009054906101000a900473ffffffffffffffffffffffffffffffffffffffff1673ffffffffffffffffffffffffffffffffffffffff1673ffffffffffffffffffffffffffffffffffffffff1681526020016003820160009054906101000a900473ffffffffffffffffffffffffffffffffffffffff1673ffffffffffffffffffffffffffffffffffffffff1673ffffffffffffffffffffffffffffffffffffffff168152602001600482015481526020016005820160009054906101000a900460ff161515151581525050838381518110610fab57610faa611809565b5b60200260200101819052508180610fc190611792565b9250505b8080610fd090611792565b915050610e00565b508194505050505090565b6000600354905090565b600260005403611032576040517f08c379a000000000000000000000000000000000000000000000000000000000815260040161102990611895565b60405180910390fd5b60026000819055506000811161107d576040517f08c379a000000000000000000000000000000000000000000000000000000000815260040161107490611bb5565b60405180910390fd5b60035434146110c1576040517f08c379a00000000000000000000000000000000000000000000000000000000081526004016110b890611901565b60405180910390fd5b8273ffffffffffffffffffffffffffffffffffffffff166323b872dd3330856040518463ffffffff1660e01b81526004016110fe93929190611930565b600060405180830381600087803b15801561111857600080fd5b505af115801561112c573d6000803e3d6000fd5b5050505061113a6002611381565b6040518060c001604052808473ffffffffffffffffffffffffffffffffffffffff1681526020018381526020013373ffffffffffffffffffffffffffffffffffffffff1681526020013073ffffffffffffffffffffffffffffffffffffffff168152602001828152602001600115158152506005600084815260200190815260200160002060008201518160000160006101000a81548173ffffffffffffffffffffffffffffffffffffffff021916908373ffffffffffffffffffffffffffffffffffffffff1602179055506020820151816001015560408201518160020160006101000a81548173ffffffffffffffffffffffffffffffffffffffff021916908373ffffffffffffffffffffffffffffffffffffffff16021790555060608201518160030160006101000a81548173ffffffffffffffffffffffffffffffffffffffff021916908373ffffffffffffffffffffffffffffffffffffffff1602179055506080820151816004015560a08201518160050160006101000a81548160ff0219169083151502179055509050507fa0c6c0d02d86fdacecbaa5fdf5894bab204e31a778250474108540733a9b8d198383333085604051611302959493929190611967565b60405180910390a16001600081905550505050565b600081600001549050919050565b60008160000154905060008111611371576040517f08c379a000000000000000000000000000000000000000000000000000000000815260040161136890611c21565b60405180910390fd5b6001810382600001819055505050565b6001816000016000828254019250508190555050565b6040518060c00160405280600073ffffffffffffffffffffffffffffffffffffffff16815260200160008152602001600073ffffffffffffffffffffffffffffffffffffffff168152602001600073ffffffffffffffffffffffffffffffffffffffff168152602001600081526020016000151581525090565b600081519050919050565b600082825260208201905092915050565b6000819050602082019050919050565b600073ffffffffffffffffffffffffffffffffffffffff82169050919050565b60006114688261143d565b9050919050565b6114788161145d565b82525050565b6000819050919050565b6114918161147e565b82525050565b60006114a28261143d565b9050919050565b6114b281611497565b82525050565b60008115159050919050565b6114cd816114b8565b82525050565b60c0820160008201516114e9600085018261146f565b5060208201516114fc6020850182611488565b50604082015161150f60408501826114a9565b50606082015161152260608501826114a9565b5060808201516115356080850182611488565b5060a082015161154860a08501826114c4565b50505050565b600061155a83836114d3565b60c08301905092915050565b6000602082019050919050565b600061157e82611411565b611588818561141c565b93506115938361142d565b8060005b838110156115c45781516115ab888261154e565b97506115b683611566565b925050600181019050611597565b5085935050505092915050565b600060208201905081810360008301526115eb8184611573565b905092915050565b6115fc8161147e565b82525050565b600060208201905061161760008301846115f3565b92915050565b600080fd5b61162b8161145d565b811461163657600080fd5b50565b60008135905061164881611622565b92915050565b6116578161147e565b811461166257600080fd5b50565b6000813590506116748161164e565b92915050565b6000806000606084860312156116935761169261161d565b5b60006116a186828701611639565b93505060206116b286828701611665565b92505060406116c386828701611665565b9150509250925092565b600080604083850312156116e4576116e361161d565b5b60006116f285828601611639565b925050602061170385828601611665565b9150509250929050565b7f4e487b7100000000000000000000000000000000000000000000000000000000600052601160045260246000fd5b60006117478261147e565b91506117528361147e565b9250827fffffffffffffffffffffffffffffffffffffffffffffffffffffffffffffffff038211156117875761178661170d565b5b828201905092915050565b600061179d8261147e565b91507fffffffffffffffffffffffffffffffffffffffffffffffffffffffffffffffff82036117cf576117ce61170d565b5b600182019050919050565b7f4e487b7100000000000000000000000000000000000000000000000000000000600052604160045260246000fd5b7f4e487b7100000000000000000000000000000000000000000000000000000000600052603260045260246000fd5b600082825260208201905092915050565b7f5265656e7472616e637947756172643a207265656e7472616e742063616c6c00600082015250565b600061187f601f83611838565b915061188a82611849565b602082019050919050565b600060208201905081810360008301526118ae81611872565b9050919050565b7f4e6f7420656e6f75676820657468657220666f72206c697374696e6720666565600082015250565b60006118eb602083611838565b91506118f6826118b5565b602082019050919050565b6000602082019050818103600083015261191a816118de565b9050919050565b61192a8161145d565b82525050565b60006060820190506119456000830186611921565b6119526020830185611921565b61195f60408301846115f3565b949350505050565b600060a08201905061197c6000830188611921565b61198960208301876115f3565b6119966040830186611921565b6119a36060830185611921565b6119b060808301846115f3565b9695505050505050565b7f4e6f7420656e6f75676820657468657220746f20636f7665722061736b696e6760008201527f2070726963650000000000000000000000000000000000000000000000000000602082015250565b6000611a16602683611838565b9150611a21826119ba565b604082019050919050565b60006020820190508181036000830152611a4581611a09565b9050919050565b6000819050919050565b6000611a71611a6c611a678461143d565b611a4c565b61143d565b9050919050565b6000611a8382611a56565b9050919050565b6000611a9582611a78565b9050919050565b611aa581611a8a565b82525050565b6000606082019050611ac06000830186611921565b611acd6020830185611a9c565b611ada60408301846115f3565b949350505050565b600060a082019050611af76000830188611921565b611b0460208301876115f3565b611b116040830186611a9c565b611b1e6060830185611a9c565b611b2b60808301846115f3565b9695505050505050565b6000611b408261147e565b9150611b4b8361147e565b925082821015611b5e57611b5d61170d565b5b828203905092915050565b7f5072696365206d757374206265206174206c6561737420312077656900000000600082015250565b6000611b9f601c83611838565b9150611baa82611b69565b602082019050919050565b60006020820190508181036000830152611bce81611b92565b9050919050565b7f436f756e7465723a2064656372656d656e74206f766572666c6f770000000000600082015250565b6000611c0b601b83611838565b9150611c1682611bd5565b602082019050919050565b60006020820190508181036000830152611c3a81611bfe565b905091905056fea26469706673582212203d530442de2b4c2dfc68c75ba5e56f637ea87daed719c1dd702959a16720a9dc64736f6c634300080d0033",
  "immutableReferences": {},
  "source": "// SPDX-License-Identifier: MIT\r\npragma solidity ^0.8.13;\r\n\r\nimport \"@openzeppelin/contracts/utils/Counters.sol\";\r\nimport \"@openzeppelin/contracts/token/ERC721/ERC721.sol\";\r\nimport \"@openzeppelin/contracts/security/ReentrancyGuard.sol\";\r\n\r\ncontract Marketplace is ReentrancyGuard {\r\n  using Counters for Counters.Counter;\r\n  Counters.Counter private _nftsSold;\r\n  Counters.Counter private _nftCount;\r\n  uint256 public LISTING_FEE = 0.0001 ether;\r\n  address payable private _marketOwner;\r\n  mapping(uint256 => NFT) private _idToNFT;\r\n  struct NFT {\r\n    address nftContract;\r\n    uint256 tokenId;\r\n    address payable seller;\r\n    address payable owner;\r\n    uint256 price;\r\n    bool listed;\r\n  }\r\n  event NFTListed(\r\n    address nftContract,\r\n    uint256 tokenId,\r\n    address seller,\r\n    address owner,\r\n    uint256 price\r\n  );\r\n  event NFTSold(\r\n    address nftContract,\r\n    uint256 tokenId,\r\n    address seller,\r\n    address owner,\r\n    uint256 price\r\n  );\r\n\r\n  constructor() {\r\n    _marketOwner = payable(msg.sender);\r\n  }\r\n\r\n  // List the NFT on the marketplace\r\n  function listNft(address _nftContract, uint256 _tokenId, uint256 _price) public payable nonReentrant {\r\n    require(_price > 0, \"Price must be at least 1 wei\");\r\n    require(msg.value == LISTING_FEE, \"Not enough ether for listing fee\");\r\n\r\n    IERC721(_nftContract).transferFrom(msg.sender, address(this), _tokenId);\r\n\r\n    _nftCount.increment();\r\n\r\n    _idToNFT[_tokenId] = NFT(\r\n      _nftContract,\r\n      _tokenId, \r\n      payable(msg.sender),\r\n      payable(address(this)),\r\n      _price,\r\n      true\r\n    );\r\n\r\n    emit NFTListed(_nftContract, _tokenId, msg.sender, address(this), _price);\r\n  }\r\n\r\n  // Resell an NFT purchased from the marketplace\r\n  function resellNft(address _nftContract, uint256 _tokenId, uint256 _price) public payable nonReentrant {\r\n    require(msg.value == LISTING_FEE, \"Not enough ether for listing fee\");\r\n\r\n    IERC721(_nftContract).transferFrom(msg.sender, address(this), _tokenId);\r\n\r\n    NFT storage nft = _idToNFT[_tokenId];\r\n    nft.seller = payable(msg.sender);\r\n    nft.owner = payable(address(this));\r\n    nft.listed = true;\r\n    nft.price = _price;\r\n    \r\n    _nftsSold.decrement();\r\n    emit NFTListed(_nftContract, _tokenId, msg.sender, address(this), _price);\r\n  }\r\n\r\n  // Buy an NFT\r\n  function buyNft(address _nftContract, uint256 _tokenId) public payable nonReentrant {\r\n    NFT storage nft = _idToNFT[_tokenId];\r\n    require(msg.value >= nft.price, \"Not enough ether to cover asking price\");\r\n\r\n    address payable buyer = payable(msg.sender);\r\n    payable(nft.seller).transfer(msg.value);\r\n    IERC721(_nftContract).transferFrom(address(this), buyer, nft.tokenId);\r\n    _marketOwner.transfer(LISTING_FEE);\r\n    nft.owner = buyer;\r\n    nft.listed = false;\r\n\r\n    _nftsSold.increment();\r\n    emit NFTSold(_nftContract, nft.tokenId, nft.seller, buyer, msg.value);\r\n  }\r\n  \r\n  function getListingFee() public view returns (uint256) {\r\n    return LISTING_FEE;\r\n  }\r\n\r\n  function getListedNfts() public view returns (NFT[] memory) {\r\n    uint256 nftCount = _nftCount.current();\r\n    uint256 unsoldNftsCount = nftCount - _nftsSold.current();\r\n\r\n    NFT[] memory nfts = new NFT[](unsoldNftsCount);\r\n    uint nftsIndex = 0;\r\n    for (uint i = 0; i < nftCount; i++) {\r\n      if (_idToNFT[i + 1].listed) {\r\n        nfts[nftsIndex] = _idToNFT[i + 1];\r\n        nftsIndex++;\r\n      }\r\n    }\r\n    return nfts;\r\n  }\r\n\r\n  function getMyNfts() public view returns (NFT[] memory) {\r\n    uint nftCount = _nftCount.current();\r\n    uint myNftCount = 0;\r\n    for (uint i = 0; i < nftCount; i++) {\r\n      if (_idToNFT[i + 1].owner == msg.sender) {\r\n        myNftCount++;\r\n      }\r\n    }\r\n\r\n    NFT[] memory nfts = new NFT[](myNftCount);\r\n    uint nftsIndex = 0;\r\n    for (uint i = 0; i < nftCount; i++) {\r\n      if (_idToNFT[i + 1].owner == msg.sender) {\r\n        nfts[nftsIndex] = _idToNFT[i + 1];\r\n        nftsIndex++;\r\n      }\r\n    }\r\n    return nfts;\r\n  }\r\n\r\n  function getMyListedNfts() public view returns (NFT[] memory) {\r\n    uint nftCount = _nftCount.current();\r\n    uint myListedNftCount = 0;\r\n    for (uint i = 0; i < nftCount; i++) {\r\n      if (_idToNFT[i + 1].seller == msg.sender && _idToNFT[i + 1].listed) {\r\n        myListedNftCount++;\r\n      }\r\n    }\r\n\r\n    NFT[] memory nfts = new NFT[](myListedNftCount);\r\n    uint nftsIndex = 0;\r\n    for (uint i = 0; i < nftCount; i++) {\r\n      if (_idToNFT[i + 1].seller == msg.sender && _idToNFT[i + 1].listed) {\r\n        nfts[nftsIndex] = _idToNFT[i + 1];\r\n        nftsIndex++;\r\n      }\r\n    }\r\n    return nfts;\r\n  }\r\n}",
  "sourcePath": "C:\\Users\\UZAIF SHAIKH\\Documents\\comp6452\\IP9\\contracts\\ethereum\\Marketplace.sol",
  "compiler": {
    "name": "solc",
    "version": "0.8.13+commit.abaa5c0e.Emscripten.clang"
  },
  "schemaVersion": "3.4.8",
  "updatedAt": "2022-07-27T09:16:47.200Z",
  "networkType": "ethereum",
  "devdoc": {
    "kind": "dev",
    "methods": {},
    "version": 1
  },
  "userdoc": {
    "kind": "user",
    "methods": {},
    "version": 1
  }
}