{
  "contractName": "Marketplace",
  "abi": [
    {
      "inputs": [],
      "stateMutability": "nonpayable",
      "type": "constructor"
    },
    {
      "anonymous": false,
      "inputs": [
        {
          "indexed": false,
          "internalType": "address",
          "name": "AudioContract",
          "type": "address"
        },
        {
          "indexed": false,
          "internalType": "uint256",
          "name": "tokenId",
          "type": "uint256"
        },
        {
          "indexed": false,
          "internalType": "address",
          "name": "owner",
          "type": "address"
        }
      ],
      "name": "NFTListed",
      "type": "event"
    },
    {
      "anonymous": false,
      "inputs": [
        {
          "indexed": false,
          "internalType": "address",
          "name": "AudioContract",
          "type": "address"
        },
        {
          "indexed": false,
          "internalType": "uint256",
          "name": "tokenId",
          "type": "uint256"
        },
        {
          "indexed": false,
          "internalType": "address",
          "name": "seller",
          "type": "address"
        },
        {
          "indexed": false,
          "internalType": "address",
          "name": "owner",
          "type": "address"
        },
        {
          "indexed": false,
          "internalType": "uint256",
          "name": "price",
          "type": "uint256"
        }
      ],
      "name": "NFTSold",
      "type": "event"
    },
    {
      "anonymous": false,
      "inputs": [
        {
          "indexed": false,
          "internalType": "address",
          "name": "offerer",
          "type": "address"
        },
        {
          "indexed": false,
          "internalType": "uint256",
          "name": "tokenId",
          "type": "uint256"
        },
        {
          "indexed": false,
          "internalType": "uint256",
          "name": "offerPrice",
          "type": "uint256"
        }
      ],
      "name": "offerMade",
      "type": "event"
    },
    {
      "inputs": [],
      "name": "LISTING_FEE",
      "outputs": [
        {
          "internalType": "uint256",
          "name": "",
          "type": "uint256"
        }
      ],
      "stateMutability": "view",
      "type": "function",
      "constant": true
    },
    {
      "inputs": [
        {
          "internalType": "address",
          "name": "_AudioContract",
          "type": "address"
        },
        {
          "internalType": "uint256",
          "name": "_tokenId",
          "type": "uint256"
        }
      ],
      "name": "listAudio",
      "outputs": [],
      "stateMutability": "payable",
      "type": "function",
      "payable": true
    },
    {
      "inputs": [
        {
          "internalType": "uint256",
          "name": "_tokenId",
          "type": "uint256"
        },
        {
          "internalType": "uint256",
          "name": "_offerPrice",
          "type": "uint256"
        }
      ],
      "name": "bidAudio",
      "outputs": [],
      "stateMutability": "nonpayable",
      "type": "function"
    },
    {
      "inputs": [
        {
          "internalType": "address",
          "name": "_nftContract",
          "type": "address"
        },
        {
          "internalType": "uint256",
          "name": "_tokenId",
          "type": "uint256"
        }
      ],
      "name": "resellAudio",
      "outputs": [],
      "stateMutability": "payable",
      "type": "function",
      "payable": true
    },
    {
      "inputs": [
        {
          "internalType": "uint256",
          "name": "_tokenId",
          "type": "uint256"
        }
      ],
      "name": "getListedOffers",
      "outputs": [
        {
          "components": [
            {
              "internalType": "uint256",
              "name": "offerId",
              "type": "uint256"
            },
            {
              "internalType": "address",
              "name": "offerer",
              "type": "address"
            },
            {
              "internalType": "uint256",
              "name": "offerPrice",
              "type": "uint256"
            },
            {
              "internalType": "uint256",
              "name": "tokenId",
              "type": "uint256"
            },
            {
              "internalType": "address[]",
              "name": "signatures",
              "type": "address[]"
            }
          ],
          "internalType": "struct Marketplace.Offers[]",
          "name": "",
          "type": "tuple[]"
        }
      ],
      "stateMutability": "view",
      "type": "function",
      "constant": true
    },
    {
      "inputs": [
        {
          "internalType": "uint256",
          "name": "offerId",
          "type": "uint256"
        },
        {
          "internalType": "address",
          "name": "_nftContract",
          "type": "address"
        },
        {
          "internalType": "uint256",
          "name": "_tokenId",
          "type": "uint256"
        }
      ],
      "name": "acceptOffer",
      "outputs": [],
      "stateMutability": "payable",
      "type": "function",
      "payable": true
    },
    {
      "inputs": [],
      "name": "getListingFee",
      "outputs": [
        {
          "internalType": "uint256",
          "name": "",
          "type": "uint256"
        }
      ],
      "stateMutability": "view",
      "type": "function",
      "constant": true
    },
    {
      "inputs": [],
      "name": "getListedNfts",
      "outputs": [
        {
          "components": [
            {
              "internalType": "address",
              "name": "AudioContract",
              "type": "address"
            },
            {
              "internalType": "uint256",
              "name": "tokenId",
              "type": "uint256"
            },
            {
              "internalType": "address payable",
              "name": "owner",
              "type": "address"
            },
            {
              "internalType": "bool",
              "name": "listed",
              "type": "bool"
            }
          ],
          "internalType": "struct Marketplace.Audio[]",
          "name": "",
          "type": "tuple[]"
        }
      ],
      "stateMutability": "view",
      "type": "function",
      "constant": true
    },
    {
      "inputs": [],
      "name": "getMyNfts",
      "outputs": [
        {
          "components": [
            {
              "internalType": "address",
              "name": "AudioContract",
              "type": "address"
            },
            {
              "internalType": "uint256",
              "name": "tokenId",
              "type": "uint256"
            },
            {
              "internalType": "address payable",
              "name": "owner",
              "type": "address"
            },
            {
              "internalType": "bool",
              "name": "listed",
              "type": "bool"
            }
          ],
          "internalType": "struct Marketplace.Audio[]",
          "name": "",
          "type": "tuple[]"
        }
      ],
      "stateMutability": "view",
      "type": "function",
      "constant": true
    },
    {
      "inputs": [],
      "name": "getMyListedNfts",
      "outputs": [
        {
          "components": [
            {
              "internalType": "address",
              "name": "AudioContract",
              "type": "address"
            },
            {
              "internalType": "uint256",
              "name": "tokenId",
              "type": "uint256"
            },
            {
              "internalType": "address payable",
              "name": "owner",
              "type": "address"
            },
            {
              "internalType": "bool",
              "name": "listed",
              "type": "bool"
            }
          ],
          "internalType": "struct Marketplace.Audio[]",
          "name": "",
          "type": "tuple[]"
        }
      ],
      "stateMutability": "view",
      "type": "function",
      "constant": true
    },
    {
      "inputs": [],
      "name": "getOffers",
      "outputs": [
        {
          "internalType": "uint256",
          "name": "",
          "type": "uint256"
        }
      ],
      "stateMutability": "view",
      "type": "function",
      "constant": true
    }
  ],
  "bytecode": "0x6080604052655af3107a400060035534801561001a57600080fd5b50600160008190555033600460006101000a81548173ffffffffffffffffffffffffffffffffffffffff021916908373ffffffffffffffffffffffffffffffffffffffff160217905550600060058190555061209d8061007b6000396000f3fe60806040526004361061009c5760003560e01c80637d0fe1ae116100645780637d0fe1ae146101695780638d6cb3fb146101855780639589d7b9146101b0578063b8fe6abe146101cc578063d686b105146101f7578063e4c7f2f9146102205761009c565b8063047b07bf146100a15780631f4cc4db146100cc5780632b86ae38146100f75780633ee992ee1461012257806359840cb51461014d575b600080fd5b3480156100ad57600080fd5b506100b661025d565b6040516100c391906118de565b60405180910390f35b3480156100d857600080fd5b506100e1610529565b6040516100ee91906118de565b60405180910390f35b34801561010357600080fd5b5061010c610775565b604051610119919061190f565b60405180910390f35b34801561012e57600080fd5b5061013761077b565b604051610144919061190f565b60405180910390f35b61016760048036038101906101629190611987565b610785565b005b610183600480360381019061017e9190611987565b61095c565b005b34801561019157600080fd5b5061019a610bd9565b6040516101a791906118de565b60405180910390f35b6101ca60048036038101906101c591906119c7565b610dd3565b005b3480156101d857600080fd5b506101e16111fa565b6040516101ee919061190f565b60405180910390f35b34801561020357600080fd5b5061021e60048036038101906102199190611a1a565b611204565b005b34801561022c57600080fd5b5061024760048036038101906102429190611a5a565b611410565b6040516102549190611c6e565b60405180910390f35b6060600060025490506000805b82811015610309573373ffffffffffffffffffffffffffffffffffffffff166006600060018461029a9190611cbf565b815260200190815260200160002060020160009054906101000a900473ffffffffffffffffffffffffffffffffffffffff1673ffffffffffffffffffffffffffffffffffffffff16036102f65781806102f290611d15565b9250505b808061030190611d15565b91505061026a565b5060008167ffffffffffffffff81111561032657610325611d5d565b5b60405190808252806020026020018201604052801561035f57816020015b61034c611602565b8152602001906001900390816103445790505b5090506000805b8481101561051e573373ffffffffffffffffffffffffffffffffffffffff16600660006001846103969190611cbf565b815260200190815260200160002060020160009054906101000a900473ffffffffffffffffffffffffffffffffffffffff1673ffffffffffffffffffffffffffffffffffffffff160361050b57600660006001836103f49190611cbf565b81526020019081526020016000206040518060800160405290816000820160009054906101000a900473ffffffffffffffffffffffffffffffffffffffff1673ffffffffffffffffffffffffffffffffffffffff1673ffffffffffffffffffffffffffffffffffffffff168152602001600182015481526020016002820160009054906101000a900473ffffffffffffffffffffffffffffffffffffffff1673ffffffffffffffffffffffffffffffffffffffff1673ffffffffffffffffffffffffffffffffffffffff1681526020016002820160149054906101000a900460ff1615151515815250508383815181106104f1576104f0611d8c565b5b6020026020010181905250818061050790611d15565b9250505b808061051690611d15565b915050610366565b508194505050505090565b6060600060025490506000805b82811015610595576006600060018361054f9190611cbf565b815260200190815260200160002060020160149054906101000a900460ff161561058257818061057e90611d15565b9250505b808061058d90611d15565b915050610536565b5060008167ffffffffffffffff8111156105b2576105b1611d5d565b5b6040519080825280602002602001820160405280156105eb57816020015b6105d8611602565b8152602001906001900390816105d05790505b5090506000805b8481101561076a576006600060018361060b9190611cbf565b815260200190815260200160002060020160149054906101000a900460ff161561075757600660006001836106409190611cbf565b81526020019081526020016000206040518060800160405290816000820160009054906101000a900473ffffffffffffffffffffffffffffffffffffffff1673ffffffffffffffffffffffffffffffffffffffff1673ffffffffffffffffffffffffffffffffffffffff168152602001600182015481526020016002820160009054906101000a900473ffffffffffffffffffffffffffffffffffffffff1673ffffffffffffffffffffffffffffffffffffffff1673ffffffffffffffffffffffffffffffffffffffff1681526020016002820160149054906101000a900460ff16151515158152505083838151811061073d5761073c611d8c565b5b6020026020010181905250818061075390611d15565b9250505b808061076290611d15565b9150506105f2565b508194505050505090565b60035481565b6000600554905090565b6002600054036107ca576040517f08c379a00000000000000000000000000000000000000000000000000000000081526004016107c190611e18565b60405180910390fd5b60026000819055506003543414610816576040517f08c379a000000000000000000000000000000000000000000000000000000000815260040161080d90611e84565b60405180910390fd5b8173ffffffffffffffffffffffffffffffffffffffff166323b872dd3330846040518463ffffffff1660e01b815260040161085393929190611eb3565b600060405180830381600087803b15801561086d57600080fd5b505af1158015610881573d6000803e3d6000fd5b505050506000600660008381526020019081526020016000209050308160020160006101000a81548173ffffffffffffffffffffffffffffffffffffffff021916908373ffffffffffffffffffffffffffffffffffffffff16021790555060018160020160146101000a81548160ff0219169083151502179055506001600081548092919061090f90611eea565b91905055507f2dd65965ecca151bbbe84bee4a840649393c7963281d4f67e856b8bb7dd7bd6483833360405161094793929190611f13565b60405180910390a15060016000819055505050565b6002600054036109a1576040517f08c379a000000000000000000000000000000000000000000000000000000000815260040161099890611e18565b60405180910390fd5b600260008190555060035434146109ed576040517f08c379a00000000000000000000000000000000000000000000000000000000081526004016109e490611e84565b60405180910390fd5b8173ffffffffffffffffffffffffffffffffffffffff166323b872dd3330846040518463ffffffff1660e01b8152600401610a2a93929190611eb3565b600060405180830381600087803b158015610a4457600080fd5b505af1158015610a58573d6000803e3d6000fd5b5050505060026000815480929190610a6f90611d15565b919050555060405180608001604052808373ffffffffffffffffffffffffffffffffffffffff1681526020018281526020013373ffffffffffffffffffffffffffffffffffffffff168152602001600115158152506006600083815260200190815260200160002060008201518160000160006101000a81548173ffffffffffffffffffffffffffffffffffffffff021916908373ffffffffffffffffffffffffffffffffffffffff1602179055506020820151816001015560408201518160020160006101000a81548173ffffffffffffffffffffffffffffffffffffffff021916908373ffffffffffffffffffffffffffffffffffffffff16021790555060608201518160020160146101000a81548160ff0219169083151502179055509050507f2dd65965ecca151bbbe84bee4a840649393c7963281d4f67e856b8bb7dd7bd64828233604051610bc593929190611f13565b60405180910390a160016000819055505050565b606060006002549050600060015482610bf29190611f4a565b905060008167ffffffffffffffff811115610c1057610c0f611d5d565b5b604051908082528060200260200182016040528015610c4957816020015b610c36611602565b815260200190600190039081610c2e5790505b5090506000805b84811015610dc85760066000600183610c699190611cbf565b815260200190815260200160002060020160149054906101000a900460ff1615610db55760066000600183610c9e9190611cbf565b81526020019081526020016000206040518060800160405290816000820160009054906101000a900473ffffffffffffffffffffffffffffffffffffffff1673ffffffffffffffffffffffffffffffffffffffff1673ffffffffffffffffffffffffffffffffffffffff168152602001600182015481526020016002820160009054906101000a900473ffffffffffffffffffffffffffffffffffffffff1673ffffffffffffffffffffffffffffffffffffffff1673ffffffffffffffffffffffffffffffffffffffff1681526020016002820160149054906101000a900460ff161515151581525050838381518110610d9b57610d9a611d8c565b5b60200260200101819052508180610db190611d15565b9250505b8080610dc090611d15565b915050610c50565b508194505050505090565b600260005403610e18576040517f08c379a0000000000000000000000000000000000000000000000000000000008152600401610e0f90611e18565b60405180910390fd5b6002600081905550600060076000858152602001908152602001600020905060008160010160009054906101000a900473ffffffffffffffffffffffffffffffffffffffff1690508160010160009054906101000a900473ffffffffffffffffffffffffffffffffffffffff1673ffffffffffffffffffffffffffffffffffffffff1682600401600081548110610eb257610eb1611d8c565b5b9060005260206000200160009054906101000a900473ffffffffffffffffffffffffffffffffffffffff1673ffffffffffffffffffffffffffffffffffffffff1614610efd57600080fd5b81600401339080600181540180825580915050600190039060005260206000200160009091909190916101000a81548173ffffffffffffffffffffffffffffffffffffffff021916908373ffffffffffffffffffffffffffffffffffffffff1602179055503373ffffffffffffffffffffffffffffffffffffffff1682600401600181548110610f9057610f8f611d8c565b5b9060005260206000200160009054906101000a900473ffffffffffffffffffffffffffffffffffffffff1673ffffffffffffffffffffffffffffffffffffffff1614610fdb57600080fd5b6002826004018054905014610fef57600080fd5b60006006600085815260200190815260200160002090508173ffffffffffffffffffffffffffffffffffffffff166108fc84600201549081150290604051600060405180830381858888f19350505050158015611050573d6000803e3d6000fd5b508473ffffffffffffffffffffffffffffffffffffffff166323b872dd308484600101546040518463ffffffff1660e01b815260040161109293929190611fdd565b600060405180830381600087803b1580156110ac57600080fd5b505af11580156110c0573d6000803e3d6000fd5b50505050600460009054906101000a900473ffffffffffffffffffffffffffffffffffffffff1673ffffffffffffffffffffffffffffffffffffffff166108fc6003549081150290604051600060405180830381858888f1935050505015801561112e573d6000803e3d6000fd5b50818160020160006101000a81548173ffffffffffffffffffffffffffffffffffffffff021916908373ffffffffffffffffffffffffffffffffffffffff16021790555060008160020160146101000a81548160ff021916908315150217905550600160008154809291906111a290611d15565b91905055507f16f1dbd97e6bf646d429ed186cce832f1f7fd9907814293b83181e9970ab7bd28585338587600201546040516111e2959493929190612014565b60405180910390a15050506001600081905550505050565b6000600354905090565b600260005403611249576040517f08c379a000000000000000000000000000000000000000000000000000000000815260040161124090611e18565b60405180910390fd5b60026000819055506040518060a0016040528060055481526020013373ffffffffffffffffffffffffffffffffffffffff168152602001828152602001838152602001600067ffffffffffffffff8111156112a7576112a6611d5d565b5b6040519080825280602002602001820160405280156112d55781602001602082028036833780820191505090505b508152506007600060055481526020019081526020016000206000820151816000015560208201518160010160006101000a81548173ffffffffffffffffffffffffffffffffffffffff021916908373ffffffffffffffffffffffffffffffffffffffff1602179055506040820151816002015560608201518160030155608082015181600401908051906020019061136f929190611658565b50905050600760006005548152602001908152602001600020600401339080600181540180825580915050600190039060005260206000200160009091909190916101000a81548173ffffffffffffffffffffffffffffffffffffffff021916908373ffffffffffffffffffffffffffffffffffffffff160217905550600560008154809291906113ff90611d15565b919050555060016000819055505050565b6060600060055467ffffffffffffffff8111156114305761142f611d5d565b5b60405190808252806020026020018201604052801561146957816020015b6114566116e2565b81526020019060019003908161144e5790505b5090506000805b6005548110156115f757846007600083815260200190815260200160002060030154036115e457600760008281526020019081526020016000206040518060a0016040529081600082015481526020016001820160009054906101000a900473ffffffffffffffffffffffffffffffffffffffff1673ffffffffffffffffffffffffffffffffffffffff1673ffffffffffffffffffffffffffffffffffffffff1681526020016002820154815260200160038201548152602001600482018054806020026020016040519081016040528092919081815260200182805480156115ae57602002820191906000526020600020905b8160009054906101000a900473ffffffffffffffffffffffffffffffffffffffff1673ffffffffffffffffffffffffffffffffffffffff1681526020019060010190808311611564575b5050505050815250508383815181106115ca576115c9611d8c565b5b602002602001018190525081806115e090611d15565b9250505b80806115ef90611d15565b915050611470565b508192505050919050565b6040518060800160405280600073ffffffffffffffffffffffffffffffffffffffff16815260200160008152602001600073ffffffffffffffffffffffffffffffffffffffff1681526020016000151581525090565b8280548282559060005260206000209081019282156116d1579160200282015b828111156116d05782518260006101000a81548173ffffffffffffffffffffffffffffffffffffffff021916908373ffffffffffffffffffffffffffffffffffffffff16021790555091602001919060010190611678565b5b5090506116de9190611727565b5090565b6040518060a0016040528060008152602001600073ffffffffffffffffffffffffffffffffffffffff1681526020016000815260200160008152602001606081525090565b5b80821115611740576000816000905550600101611728565b5090565b600081519050919050565b600082825260208201905092915050565b6000819050602082019050919050565b600073ffffffffffffffffffffffffffffffffffffffff82169050919050565b600061179b82611770565b9050919050565b6117ab81611790565b82525050565b6000819050919050565b6117c4816117b1565b82525050565b60006117d582611770565b9050919050565b6117e5816117ca565b82525050565b60008115159050919050565b611800816117eb565b82525050565b60808201600082015161181c60008501826117a2565b50602082015161182f60208501826117bb565b50604082015161184260408501826117dc565b50606082015161185560608501826117f7565b50505050565b60006118678383611806565b60808301905092915050565b6000602082019050919050565b600061188b82611744565b611895818561174f565b93506118a083611760565b8060005b838110156118d15781516118b8888261185b565b97506118c383611873565b9250506001810190506118a4565b5085935050505092915050565b600060208201905081810360008301526118f88184611880565b905092915050565b611909816117b1565b82525050565b60006020820190506119246000830184611900565b92915050565b600080fd5b61193881611790565b811461194357600080fd5b50565b6000813590506119558161192f565b92915050565b611964816117b1565b811461196f57600080fd5b50565b6000813590506119818161195b565b92915050565b6000806040838503121561199e5761199d61192a565b5b60006119ac85828601611946565b92505060206119bd85828601611972565b9150509250929050565b6000806000606084860312156119e0576119df61192a565b5b60006119ee86828701611972565b93505060206119ff86828701611946565b9250506040611a1086828701611972565b9150509250925092565b60008060408385031215611a3157611a3061192a565b5b6000611a3f85828601611972565b9250506020611a5085828601611972565b9150509250929050565b600060208284031215611a7057611a6f61192a565b5b6000611a7e84828501611972565b91505092915050565b600081519050919050565b600082825260208201905092915050565b6000819050602082019050919050565b600081519050919050565b600082825260208201905092915050565b6000819050602082019050919050565b6000611aeb83836117a2565b60208301905092915050565b6000602082019050919050565b6000611b0f82611ab3565b611b198185611abe565b9350611b2483611acf565b8060005b83811015611b55578151611b3c8882611adf565b9750611b4783611af7565b925050600181019050611b28565b5085935050505092915050565b600060a083016000830151611b7a60008601826117bb565b506020830151611b8d60208601826117a2565b506040830151611ba060408601826117bb565b506060830151611bb360608601826117bb565b5060808301518482036080860152611bcb8282611b04565b9150508091505092915050565b6000611be48383611b62565b905092915050565b6000602082019050919050565b6000611c0482611a87565b611c0e8185611a92565b935083602082028501611c2085611aa3565b8060005b85811015611c5c5784840389528151611c3d8582611bd8565b9450611c4883611bec565b925060208a01995050600181019050611c24565b50829750879550505050505092915050565b60006020820190508181036000830152611c888184611bf9565b905092915050565b7f4e487b7100000000000000000000000000000000000000000000000000000000600052601160045260246000fd5b6000611cca826117b1565b9150611cd5836117b1565b9250827fffffffffffffffffffffffffffffffffffffffffffffffffffffffffffffffff03821115611d0a57611d09611c90565b5b828201905092915050565b6000611d20826117b1565b91507fffffffffffffffffffffffffffffffffffffffffffffffffffffffffffffffff8203611d5257611d51611c90565b5b600182019050919050565b7f4e487b7100000000000000000000000000000000000000000000000000000000600052604160045260246000fd5b7f4e487b7100000000000000000000000000000000000000000000000000000000600052603260045260246000fd5b600082825260208201905092915050565b7f5265656e7472616e637947756172643a207265656e7472616e742063616c6c00600082015250565b6000611e02601f83611dbb565b9150611e0d82611dcc565b602082019050919050565b60006020820190508181036000830152611e3181611df5565b9050919050565b7f4e6f7420656e6f75676820657468657220666f72206c697374696e6720666565600082015250565b6000611e6e602083611dbb565b9150611e7982611e38565b602082019050919050565b60006020820190508181036000830152611e9d81611e61565b9050919050565b611ead81611790565b82525050565b6000606082019050611ec86000830186611ea4565b611ed56020830185611ea4565b611ee26040830184611900565b949350505050565b6000611ef5826117b1565b915060008203611f0857611f07611c90565b5b600182039050919050565b6000606082019050611f286000830186611ea4565b611f356020830185611900565b611f426040830184611ea4565b949350505050565b6000611f55826117b1565b9150611f60836117b1565b925082821015611f7357611f72611c90565b5b828203905092915050565b6000819050919050565b6000611fa3611f9e611f9984611770565b611f7e565b611770565b9050919050565b6000611fb582611f88565b9050919050565b6000611fc782611faa565b9050919050565b611fd781611fbc565b82525050565b6000606082019050611ff26000830186611ea4565b611fff6020830185611fce565b61200c6040830184611900565b949350505050565b600060a0820190506120296000830188611ea4565b6120366020830187611900565b6120436040830186611ea4565b6120506060830185611ea4565b61205d6080830184611900565b969550505050505056fea2646970667358221220c3a7a3322341e624716bf812628c2ee36781beb339a5ff984023170ba2b4c7e064736f6c634300080d0033",
  "immutableReferences": {},
  "source": "// SPDX-License-Identifier: MIT\npragma solidity ^0.8.13;\n\nimport \"@openzeppelin/contracts/token/ERC721/ERC721.sol\";\nimport \"@openzeppelin/contracts/security/ReentrancyGuard.sol\";\n\ncontract Marketplace is ReentrancyGuard {\n  uint256 _ContractsSold;\n  uint256 _ContractCount;\n  uint256 public LISTING_FEE = 0.0001 ether;\n  address payable private _marketOwner;\n  uint256 totalOffers;\n\n  mapping(uint256 => Audio) private _idToAudio;\n  mapping(uint256 => Offers) private _AudioOffers;\n\n  struct Offers {\n    uint offerId;\n    address offerer;\n    uint256 offerPrice;\n    uint256 tokenId;\n    address[] signatures;\n  }\n\n  struct Audio {\n    address AudioContract;\n    uint256 tokenId;\n    address payable owner;\n    bool listed;\n  }\n\n  event NFTListed(\n    address AudioContract,\n    uint256 tokenId,\n    address owner\n  );\n  event offerMade(\n    address offerer,\n    uint256 tokenId,\n    uint256 offerPrice\n  );\n  event NFTSold(\n    address AudioContract,\n    uint256 tokenId,\n    address seller,\n    address owner,\n    uint256 price\n  );\n\n  constructor() {\n    _marketOwner = payable(msg.sender);\n    totalOffers = 0;\n  }\n\n// ########################################################################\n\n  // List the Audio on the marketplace\n  function listAudio(address _AudioContract, uint256 _tokenId) public payable nonReentrant {\n    require(msg.value == LISTING_FEE, \"Not enough ether for listing fee\");\n\n    IERC721(_AudioContract).transferFrom(msg.sender, address(this), _tokenId);\n    _ContractCount++;\n\n    _idToAudio[_tokenId] = Audio(\n      _AudioContract,\n      _tokenId, \n      payable(msg.sender),\n      true\n    );\n\n    emit NFTListed(_AudioContract, _tokenId, msg.sender);\n  }\n\n// ########################################################################\n\n  function bidAudio(uint256 _tokenId, uint256 _offerPrice) public nonReentrant {\n    _AudioOffers[totalOffers] = Offers(\n        totalOffers,\n        msg.sender,\n        _offerPrice,\n        _tokenId,\n        new address[](0)\n    );\n    _AudioOffers[totalOffers].signatures.push(msg.sender);\n    totalOffers++;\n  }\n\n\n// ########################################################################\n\n\n  // Resell an NFT purchased from the marketplace\n  function resellAudio(address _nftContract, uint256 _tokenId) public payable nonReentrant {\n    require(msg.value == LISTING_FEE, \"Not enough ether for listing fee\");\n\n    IERC721(_nftContract).transferFrom(msg.sender, address(this), _tokenId);\n\n    Audio storage audio = _idToAudio[_tokenId];\n    audio.owner = payable(address(this));\n    audio.listed = true;\n    \n    _ContractsSold--;\n    emit NFTListed(_nftContract, _tokenId, msg.sender);\n  }\n\n// ########################################################################\n\n    function getListedOffers(uint256 _tokenId) public view returns (Offers[] memory) {\n        Offers[] memory offers = new Offers[](totalOffers);\n        uint j = 0;\n        for (uint i = 0; i < totalOffers; i++) {\n            if (_AudioOffers[i].tokenId == _tokenId) {\n                offers[j] = _AudioOffers[i];\n                j++;\n             }\n        }\n        return offers;\n    }\n\n// ########################################################################\n\n    function acceptOffer(uint256 offerId, address _nftContract, uint256 _tokenId) public payable nonReentrant {\n        Offers storage _offer = _AudioOffers[offerId];\n        address buyer = _offer.offerer;\n        // Signature\n        require(_offer.signatures[0] == _offer.offerer);\n        _offer.signatures.push(msg.sender);\n        require(_offer.signatures[1] == msg.sender);\n        require(_offer.signatures.length == 2);\n\n        Audio storage audio = _idToAudio[_tokenId];\n        payable(buyer).transfer(_offer.offerPrice);\n        IERC721(_nftContract).transferFrom(address(this), payable(buyer), audio.tokenId);\n        _marketOwner.transfer(LISTING_FEE);\n        audio.owner = payable(buyer);\n        audio.listed = false;\n\n        _ContractsSold++;\n        emit NFTSold(_nftContract, _tokenId, msg.sender, buyer, _offer.offerPrice);\n    }\n\n// ########################################################################\n\n  function getListingFee() public view returns (uint256) {\n    return LISTING_FEE;\n  }\n\n // ######################################################################## \n\n  function getListedNfts() public view returns (Audio[] memory) {\n    uint256 nftCount = _ContractCount;\n    uint256 unsoldNftsCount = nftCount - _ContractsSold;\n\n    Audio[] memory nfts = new Audio[](unsoldNftsCount);\n    uint nftsIndex = 0;\n    for (uint i = 0; i < nftCount; i++) {\n      if (_idToAudio[i + 1].listed) {\n        nfts[nftsIndex] = _idToAudio[i + 1];\n        nftsIndex++;\n      }\n    }\n    return nfts;\n  }\n\n// ########################################################################\n\n  function getMyNfts() public view returns (Audio[] memory) {\n    uint nftCount = _ContractCount;\n    uint myNftCount = 0;\n    for (uint i = 0; i < nftCount; i++) {\n      if (_idToAudio[i + 1].owner == msg.sender) {\n        myNftCount++;\n      }\n    }\n\n    Audio[] memory nfts = new Audio[](myNftCount);\n    uint nftsIndex = 0;\n    for (uint i = 0; i < nftCount; i++) {\n      if (_idToAudio[i + 1].owner == msg.sender) {\n        nfts[nftsIndex] = _idToAudio[i + 1];\n        nftsIndex++;\n      }\n    }\n    return nfts;\n  }\n\n// ########################################################################\n\n  function getMyListedNfts() public view returns (Audio[] memory) {\n    uint nftCount = _ContractCount;\n    uint myListedNftCount = 0;\n    for (uint i = 0; i < nftCount; i++) {\n      if (_idToAudio[i + 1].listed) {\n        myListedNftCount++;\n      }\n    }\n\n    Audio[] memory audios = new Audio[](myListedNftCount);\n    uint nftsIndex = 0;\n    for (uint i = 0; i < nftCount; i++) {\n      if (_idToAudio[i + 1].listed) {\n        audios[nftsIndex] = _idToAudio[i + 1];\n        nftsIndex++;\n      }\n    }\n    return audios;\n  }\n\n  function getOffers() public view returns (uint) {\n    return totalOffers;\n  }\n}",
  "sourcePath": "/Users/hoshang/Documents/Uni/COMP6452/IP9/contracts/ethereum/Marketplace.sol",
  "compiler": {
    "name": "solc",
    "version": "0.8.13+commit.abaa5c0e.Emscripten.clang"
  },
  "schemaVersion": "3.4.8",
  "updatedAt": "2022-07-27T18:01:51.497Z",
  "networkType": "ethereum",
  "devdoc": {
    "kind": "dev",
    "methods": {},
    "version": 1
  },
  "userdoc": {
    "kind": "user",
    "methods": {},
    "version": 1
  }
}