{
  "contractName": "RightsManagers",
  "abi": [
    {
      "inputs": [],
      "stateMutability": "nonpayable",
      "type": "constructor"
    },
    {
      "anonymous": false,
      "inputs": [
        {
          "indexed": false,
          "internalType": "address",
          "name": "AudioContract",
          "type": "address"
        },
        {
          "indexed": false,
          "internalType": "uint256",
          "name": "tokenId",
          "type": "uint256"
        },
        {
          "indexed": false,
          "internalType": "address",
          "name": "owner",
          "type": "address"
        }
      ],
      "name": "NFTListed",
      "type": "event"
    },
    {
      "anonymous": false,
      "inputs": [
        {
          "indexed": false,
          "internalType": "address",
          "name": "AudioContract",
          "type": "address"
        },
        {
          "indexed": false,
          "internalType": "uint256",
          "name": "tokenId",
          "type": "uint256"
        },
        {
          "indexed": false,
          "internalType": "address",
          "name": "seller",
          "type": "address"
        },
        {
          "indexed": false,
          "internalType": "address",
          "name": "owner",
          "type": "address"
        },
        {
          "indexed": false,
          "internalType": "uint256",
          "name": "price",
          "type": "uint256"
        }
      ],
      "name": "NFTSold",
      "type": "event"
    },
    {
      "anonymous": false,
      "inputs": [
        {
          "indexed": false,
          "internalType": "address",
          "name": "offerer",
          "type": "address"
        },
        {
          "indexed": false,
          "internalType": "uint256",
          "name": "tokenId",
          "type": "uint256"
        },
        {
          "indexed": false,
          "internalType": "uint256",
          "name": "offerPrice",
          "type": "uint256"
        }
      ],
      "name": "offerMade",
      "type": "event"
    },
    {
      "inputs": [],
      "name": "LISTING_FEE",
      "outputs": [
        {
          "internalType": "uint256",
          "name": "",
          "type": "uint256"
        }
      ],
      "stateMutability": "view",
      "type": "function"
    },
    {
      "inputs": [
        {
          "internalType": "address",
          "name": "_AudioContract",
          "type": "address"
        },
        {
          "internalType": "uint256",
          "name": "_tokenId",
          "type": "uint256"
        }
      ],
      "name": "listAudio",
      "outputs": [],
      "stateMutability": "payable",
      "type": "function"
    },
    {
      "inputs": [
        {
          "internalType": "uint256",
          "name": "_tokenId",
          "type": "uint256"
        },
        {
          "internalType": "uint256",
          "name": "_offerPrice",
          "type": "uint256"
        }
      ],
      "name": "bidAudio",
      "outputs": [],
      "stateMutability": "nonpayable",
      "type": "function"
    },
    {
      "inputs": [
        {
          "internalType": "address",
          "name": "_nftContract",
          "type": "address"
        },
        {
          "internalType": "uint256",
          "name": "_tokenId",
          "type": "uint256"
        }
      ],
      "name": "resellAudio",
      "outputs": [],
      "stateMutability": "payable",
      "type": "function"
    },
    {
      "inputs": [
        {
          "internalType": "uint256",
          "name": "_tokenId",
          "type": "uint256"
        }
      ],
      "name": "getListedOffers",
      "outputs": [
        {
          "components": [
            {
              "internalType": "uint256",
              "name": "offerId",
              "type": "uint256"
            },
            {
              "internalType": "address",
              "name": "offerer",
              "type": "address"
            },
            {
              "internalType": "uint256",
              "name": "offerPrice",
              "type": "uint256"
            },
            {
              "internalType": "uint256",
              "name": "tokenId",
              "type": "uint256"
            },
            {
              "internalType": "address[]",
              "name": "signatures",
              "type": "address[]"
            }
          ],
          "internalType": "struct RightsManagers.Offers[]",
          "name": "",
          "type": "tuple[]"
        }
      ],
      "stateMutability": "view",
      "type": "function"
    },
    {
      "inputs": [
        {
          "internalType": "uint256",
          "name": "offerId",
          "type": "uint256"
        },
        {
          "internalType": "address",
          "name": "_nftContract",
          "type": "address"
        },
        {
          "internalType": "uint256",
          "name": "_tokenId",
          "type": "uint256"
        }
      ],
      "name": "acceptOffer",
      "outputs": [],
      "stateMutability": "payable",
      "type": "function"
    },
    {
      "inputs": [],
      "name": "getListingFee",
      "outputs": [
        {
          "internalType": "uint256",
          "name": "",
          "type": "uint256"
        }
      ],
      "stateMutability": "view",
      "type": "function"
    },
    {
      "inputs": [],
      "name": "getListedNfts",
      "outputs": [
        {
          "components": [
            {
              "internalType": "address",
              "name": "AudioContract",
              "type": "address"
            },
            {
              "internalType": "uint256",
              "name": "tokenId",
              "type": "uint256"
            },
            {
              "internalType": "address payable",
              "name": "owner",
              "type": "address"
            },
            {
              "internalType": "bool",
              "name": "listed",
              "type": "bool"
            }
          ],
          "internalType": "struct RightsManagers.Audio[]",
          "name": "",
          "type": "tuple[]"
        }
      ],
      "stateMutability": "view",
      "type": "function"
    },
    {
      "inputs": [],
      "name": "getMyNfts",
      "outputs": [
        {
          "components": [
            {
              "internalType": "address",
              "name": "AudioContract",
              "type": "address"
            },
            {
              "internalType": "uint256",
              "name": "tokenId",
              "type": "uint256"
            },
            {
              "internalType": "address payable",
              "name": "owner",
              "type": "address"
            },
            {
              "internalType": "bool",
              "name": "listed",
              "type": "bool"
            }
          ],
          "internalType": "struct RightsManagers.Audio[]",
          "name": "",
          "type": "tuple[]"
        }
      ],
      "stateMutability": "view",
      "type": "function"
    },
    {
      "inputs": [],
      "name": "getMyListedNfts",
      "outputs": [
        {
          "components": [
            {
              "internalType": "address",
              "name": "AudioContract",
              "type": "address"
            },
            {
              "internalType": "uint256",
              "name": "tokenId",
              "type": "uint256"
            },
            {
              "internalType": "address payable",
              "name": "owner",
              "type": "address"
            },
            {
              "internalType": "bool",
              "name": "listed",
              "type": "bool"
            }
          ],
          "internalType": "struct RightsManagers.Audio[]",
          "name": "",
          "type": "tuple[]"
        }
      ],
      "stateMutability": "view",
      "type": "function"
    }
  ],
  "bytecode": "0x6080604052655af3107a400060035534801561001a57600080fd5b50600160008190555033600460006101000a81548173ffffffffffffffffffffffffffffffffffffffff021916908373ffffffffffffffffffffffffffffffffffffffff160217905550600060058190555061205d8061007b6000396000f3fe6080604052600436106100915760003560e01c80638d6cb3fb116100595780638d6cb3fb1461014f5780639589d7b91461017a578063b8fe6abe14610196578063d686b105146101c1578063e4c7f2f9146101ea57610091565b8063047b07bf146100965780631f4cc4db146100c15780632b86ae38146100ec57806359840cb5146101175780637d0fe1ae14610133575b600080fd5b3480156100a257600080fd5b506100ab610227565b6040516100b8919061189e565b60405180910390f35b3480156100cd57600080fd5b506100d66104f3565b6040516100e3919061189e565b60405180910390f35b3480156100f857600080fd5b5061010161073f565b60405161010e91906118cf565b60405180910390f35b610131600480360381019061012c9190611947565b610745565b005b61014d60048036038101906101489190611947565b61091c565b005b34801561015b57600080fd5b50610164610b99565b604051610171919061189e565b60405180910390f35b610194600480360381019061018f9190611987565b610d93565b005b3480156101a257600080fd5b506101ab6111ba565b6040516101b891906118cf565b60405180910390f35b3480156101cd57600080fd5b506101e860048036038101906101e391906119da565b6111c4565b005b3480156101f657600080fd5b50610211600480360381019061020c9190611a1a565b6113d0565b60405161021e9190611c2e565b60405180910390f35b6060600060025490506000805b828110156102d3573373ffffffffffffffffffffffffffffffffffffffff16600660006001846102649190611c7f565b815260200190815260200160002060020160009054906101000a900473ffffffffffffffffffffffffffffffffffffffff1673ffffffffffffffffffffffffffffffffffffffff16036102c05781806102bc90611cd5565b9250505b80806102cb90611cd5565b915050610234565b5060008167ffffffffffffffff8111156102f0576102ef611d1d565b5b60405190808252806020026020018201604052801561032957816020015b6103166115c2565b81526020019060019003908161030e5790505b5090506000805b848110156104e8573373ffffffffffffffffffffffffffffffffffffffff16600660006001846103609190611c7f565b815260200190815260200160002060020160009054906101000a900473ffffffffffffffffffffffffffffffffffffffff1673ffffffffffffffffffffffffffffffffffffffff16036104d557600660006001836103be9190611c7f565b81526020019081526020016000206040518060800160405290816000820160009054906101000a900473ffffffffffffffffffffffffffffffffffffffff1673ffffffffffffffffffffffffffffffffffffffff1673ffffffffffffffffffffffffffffffffffffffff168152602001600182015481526020016002820160009054906101000a900473ffffffffffffffffffffffffffffffffffffffff1673ffffffffffffffffffffffffffffffffffffffff1673ffffffffffffffffffffffffffffffffffffffff1681526020016002820160149054906101000a900460ff1615151515815250508383815181106104bb576104ba611d4c565b5b602002602001018190525081806104d190611cd5565b9250505b80806104e090611cd5565b915050610330565b508194505050505090565b6060600060025490506000805b8281101561055f57600660006001836105199190611c7f565b815260200190815260200160002060020160149054906101000a900460ff161561054c57818061054890611cd5565b9250505b808061055790611cd5565b915050610500565b5060008167ffffffffffffffff81111561057c5761057b611d1d565b5b6040519080825280602002602001820160405280156105b557816020015b6105a26115c2565b81526020019060019003908161059a5790505b5090506000805b8481101561073457600660006001836105d59190611c7f565b815260200190815260200160002060020160149054906101000a900460ff1615610721576006600060018361060a9190611c7f565b81526020019081526020016000206040518060800160405290816000820160009054906101000a900473ffffffffffffffffffffffffffffffffffffffff1673ffffffffffffffffffffffffffffffffffffffff1673ffffffffffffffffffffffffffffffffffffffff168152602001600182015481526020016002820160009054906101000a900473ffffffffffffffffffffffffffffffffffffffff1673ffffffffffffffffffffffffffffffffffffffff1673ffffffffffffffffffffffffffffffffffffffff1681526020016002820160149054906101000a900460ff16151515158152505083838151811061070757610706611d4c565b5b6020026020010181905250818061071d90611cd5565b9250505b808061072c90611cd5565b9150506105bc565b508194505050505090565b60035481565b60026000540361078a576040517f08c379a000000000000000000000000000000000000000000000000000000000815260040161078190611dd8565b60405180910390fd5b600260008190555060035434146107d6576040517f08c379a00000000000000000000000000000000000000000000000000000000081526004016107cd90611e44565b60405180910390fd5b8173ffffffffffffffffffffffffffffffffffffffff166323b872dd3330846040518463ffffffff1660e01b815260040161081393929190611e73565b600060405180830381600087803b15801561082d57600080fd5b505af1158015610841573d6000803e3d6000fd5b505050506000600660008381526020019081526020016000209050308160020160006101000a81548173ffffffffffffffffffffffffffffffffffffffff021916908373ffffffffffffffffffffffffffffffffffffffff16021790555060018160020160146101000a81548160ff021916908315150217905550600160008154809291906108cf90611eaa565b91905055507f2dd65965ecca151bbbe84bee4a840649393c7963281d4f67e856b8bb7dd7bd6483833360405161090793929190611ed3565b60405180910390a15060016000819055505050565b600260005403610961576040517f08c379a000000000000000000000000000000000000000000000000000000000815260040161095890611dd8565b60405180910390fd5b600260008190555060035434146109ad576040517f08c379a00000000000000000000000000000000000000000000000000000000081526004016109a490611e44565b60405180910390fd5b8173ffffffffffffffffffffffffffffffffffffffff166323b872dd3330846040518463ffffffff1660e01b81526004016109ea93929190611e73565b600060405180830381600087803b158015610a0457600080fd5b505af1158015610a18573d6000803e3d6000fd5b5050505060026000815480929190610a2f90611cd5565b919050555060405180608001604052808373ffffffffffffffffffffffffffffffffffffffff1681526020018281526020013373ffffffffffffffffffffffffffffffffffffffff168152602001600115158152506006600083815260200190815260200160002060008201518160000160006101000a81548173ffffffffffffffffffffffffffffffffffffffff021916908373ffffffffffffffffffffffffffffffffffffffff1602179055506020820151816001015560408201518160020160006101000a81548173ffffffffffffffffffffffffffffffffffffffff021916908373ffffffffffffffffffffffffffffffffffffffff16021790555060608201518160020160146101000a81548160ff0219169083151502179055509050507f2dd65965ecca151bbbe84bee4a840649393c7963281d4f67e856b8bb7dd7bd64828233604051610b8593929190611ed3565b60405180910390a160016000819055505050565b606060006002549050600060015482610bb29190611f0a565b905060008167ffffffffffffffff811115610bd057610bcf611d1d565b5b604051908082528060200260200182016040528015610c0957816020015b610bf66115c2565b815260200190600190039081610bee5790505b5090506000805b84811015610d885760066000600183610c299190611c7f565b815260200190815260200160002060020160149054906101000a900460ff1615610d755760066000600183610c5e9190611c7f565b81526020019081526020016000206040518060800160405290816000820160009054906101000a900473ffffffffffffffffffffffffffffffffffffffff1673ffffffffffffffffffffffffffffffffffffffff1673ffffffffffffffffffffffffffffffffffffffff168152602001600182015481526020016002820160009054906101000a900473ffffffffffffffffffffffffffffffffffffffff1673ffffffffffffffffffffffffffffffffffffffff1673ffffffffffffffffffffffffffffffffffffffff1681526020016002820160149054906101000a900460ff161515151581525050838381518110610d5b57610d5a611d4c565b5b60200260200101819052508180610d7190611cd5565b9250505b8080610d8090611cd5565b915050610c10565b508194505050505090565b600260005403610dd8576040517f08c379a0000000000000000000000000000000000000000000000000000000008152600401610dcf90611dd8565b60405180910390fd5b6002600081905550600060076000858152602001908152602001600020905060008160010160009054906101000a900473ffffffffffffffffffffffffffffffffffffffff1690508160010160009054906101000a900473ffffffffffffffffffffffffffffffffffffffff1673ffffffffffffffffffffffffffffffffffffffff1682600401600081548110610e7257610e71611d4c565b5b9060005260206000200160009054906101000a900473ffffffffffffffffffffffffffffffffffffffff1673ffffffffffffffffffffffffffffffffffffffff1614610ebd57600080fd5b81600401339080600181540180825580915050600190039060005260206000200160009091909190916101000a81548173ffffffffffffffffffffffffffffffffffffffff021916908373ffffffffffffffffffffffffffffffffffffffff1602179055503373ffffffffffffffffffffffffffffffffffffffff1682600401600181548110610f5057610f4f611d4c565b5b9060005260206000200160009054906101000a900473ffffffffffffffffffffffffffffffffffffffff1673ffffffffffffffffffffffffffffffffffffffff1614610f9b57600080fd5b6002826004018054905014610faf57600080fd5b60006006600085815260200190815260200160002090508173ffffffffffffffffffffffffffffffffffffffff166108fc84600201549081150290604051600060405180830381858888f19350505050158015611010573d6000803e3d6000fd5b508473ffffffffffffffffffffffffffffffffffffffff166323b872dd308484600101546040518463ffffffff1660e01b815260040161105293929190611f9d565b600060405180830381600087803b15801561106c57600080fd5b505af1158015611080573d6000803e3d6000fd5b50505050600460009054906101000a900473ffffffffffffffffffffffffffffffffffffffff1673ffffffffffffffffffffffffffffffffffffffff166108fc6003549081150290604051600060405180830381858888f193505050501580156110ee573d6000803e3d6000fd5b50818160020160006101000a81548173ffffffffffffffffffffffffffffffffffffffff021916908373ffffffffffffffffffffffffffffffffffffffff16021790555060008160020160146101000a81548160ff0219169083151502179055506001600081548092919061116290611cd5565b91905055507f16f1dbd97e6bf646d429ed186cce832f1f7fd9907814293b83181e9970ab7bd28585338587600201546040516111a2959493929190611fd4565b60405180910390a15050506001600081905550505050565b6000600354905090565b600260005403611209576040517f08c379a000000000000000000000000000000000000000000000000000000000815260040161120090611dd8565b60405180910390fd5b60026000819055506040518060a0016040528060055481526020013373ffffffffffffffffffffffffffffffffffffffff168152602001828152602001838152602001600067ffffffffffffffff81111561126757611266611d1d565b5b6040519080825280602002602001820160405280156112955781602001602082028036833780820191505090505b508152506007600060055481526020019081526020016000206000820151816000015560208201518160010160006101000a81548173ffffffffffffffffffffffffffffffffffffffff021916908373ffffffffffffffffffffffffffffffffffffffff1602179055506040820151816002015560608201518160030155608082015181600401908051906020019061132f929190611618565b50905050600760006005548152602001908152602001600020600401339080600181540180825580915050600190039060005260206000200160009091909190916101000a81548173ffffffffffffffffffffffffffffffffffffffff021916908373ffffffffffffffffffffffffffffffffffffffff160217905550600560008154809291906113bf90611cd5565b919050555060016000819055505050565b6060600060055467ffffffffffffffff8111156113f0576113ef611d1d565b5b60405190808252806020026020018201604052801561142957816020015b6114166116a2565b81526020019060019003908161140e5790505b5090506000805b6005548110156115b757846007600083815260200190815260200160002060030154036115a457600760008281526020019081526020016000206040518060a0016040529081600082015481526020016001820160009054906101000a900473ffffffffffffffffffffffffffffffffffffffff1673ffffffffffffffffffffffffffffffffffffffff1673ffffffffffffffffffffffffffffffffffffffff16815260200160028201548152602001600382015481526020016004820180548060200260200160405190810160405280929190818152602001828054801561156e57602002820191906000526020600020905b8160009054906101000a900473ffffffffffffffffffffffffffffffffffffffff1673ffffffffffffffffffffffffffffffffffffffff1681526020019060010190808311611524575b50505050508152505083838151811061158a57611589611d4c565b5b602002602001018190525081806115a090611cd5565b9250505b80806115af90611cd5565b915050611430565b508192505050919050565b6040518060800160405280600073ffffffffffffffffffffffffffffffffffffffff16815260200160008152602001600073ffffffffffffffffffffffffffffffffffffffff1681526020016000151581525090565b828054828255906000526020600020908101928215611691579160200282015b828111156116905782518260006101000a81548173ffffffffffffffffffffffffffffffffffffffff021916908373ffffffffffffffffffffffffffffffffffffffff16021790555091602001919060010190611638565b5b50905061169e91906116e7565b5090565b6040518060a0016040528060008152602001600073ffffffffffffffffffffffffffffffffffffffff1681526020016000815260200160008152602001606081525090565b5b808211156117005760008160009055506001016116e8565b5090565b600081519050919050565b600082825260208201905092915050565b6000819050602082019050919050565b600073ffffffffffffffffffffffffffffffffffffffff82169050919050565b600061175b82611730565b9050919050565b61176b81611750565b82525050565b6000819050919050565b61178481611771565b82525050565b600061179582611730565b9050919050565b6117a58161178a565b82525050565b60008115159050919050565b6117c0816117ab565b82525050565b6080820160008201516117dc6000850182611762565b5060208201516117ef602085018261177b565b506040820151611802604085018261179c565b50606082015161181560608501826117b7565b50505050565b600061182783836117c6565b60808301905092915050565b6000602082019050919050565b600061184b82611704565b611855818561170f565b935061186083611720565b8060005b83811015611891578151611878888261181b565b975061188383611833565b925050600181019050611864565b5085935050505092915050565b600060208201905081810360008301526118b88184611840565b905092915050565b6118c981611771565b82525050565b60006020820190506118e460008301846118c0565b92915050565b600080fd5b6118f881611750565b811461190357600080fd5b50565b600081359050611915816118ef565b92915050565b61192481611771565b811461192f57600080fd5b50565b6000813590506119418161191b565b92915050565b6000806040838503121561195e5761195d6118ea565b5b600061196c85828601611906565b925050602061197d85828601611932565b9150509250929050565b6000806000606084860312156119a05761199f6118ea565b5b60006119ae86828701611932565b93505060206119bf86828701611906565b92505060406119d086828701611932565b9150509250925092565b600080604083850312156119f1576119f06118ea565b5b60006119ff85828601611932565b9250506020611a1085828601611932565b9150509250929050565b600060208284031215611a3057611a2f6118ea565b5b6000611a3e84828501611932565b91505092915050565b600081519050919050565b600082825260208201905092915050565b6000819050602082019050919050565b600081519050919050565b600082825260208201905092915050565b6000819050602082019050919050565b6000611aab8383611762565b60208301905092915050565b6000602082019050919050565b6000611acf82611a73565b611ad98185611a7e565b9350611ae483611a8f565b8060005b83811015611b15578151611afc8882611a9f565b9750611b0783611ab7565b925050600181019050611ae8565b5085935050505092915050565b600060a083016000830151611b3a600086018261177b565b506020830151611b4d6020860182611762565b506040830151611b60604086018261177b565b506060830151611b73606086018261177b565b5060808301518482036080860152611b8b8282611ac4565b9150508091505092915050565b6000611ba48383611b22565b905092915050565b6000602082019050919050565b6000611bc482611a47565b611bce8185611a52565b935083602082028501611be085611a63565b8060005b85811015611c1c5784840389528151611bfd8582611b98565b9450611c0883611bac565b925060208a01995050600181019050611be4565b50829750879550505050505092915050565b60006020820190508181036000830152611c488184611bb9565b905092915050565b7f4e487b7100000000000000000000000000000000000000000000000000000000600052601160045260246000fd5b6000611c8a82611771565b9150611c9583611771565b9250827fffffffffffffffffffffffffffffffffffffffffffffffffffffffffffffffff03821115611cca57611cc9611c50565b5b828201905092915050565b6000611ce082611771565b91507fffffffffffffffffffffffffffffffffffffffffffffffffffffffffffffffff8203611d1257611d11611c50565b5b600182019050919050565b7f4e487b7100000000000000000000000000000000000000000000000000000000600052604160045260246000fd5b7f4e487b7100000000000000000000000000000000000000000000000000000000600052603260045260246000fd5b600082825260208201905092915050565b7f5265656e7472616e637947756172643a207265656e7472616e742063616c6c00600082015250565b6000611dc2601f83611d7b565b9150611dcd82611d8c565b602082019050919050565b60006020820190508181036000830152611df181611db5565b9050919050565b7f4e6f7420656e6f75676820657468657220666f72206c697374696e6720666565600082015250565b6000611e2e602083611d7b565b9150611e3982611df8565b602082019050919050565b60006020820190508181036000830152611e5d81611e21565b9050919050565b611e6d81611750565b82525050565b6000606082019050611e886000830186611e64565b611e956020830185611e64565b611ea260408301846118c0565b949350505050565b6000611eb582611771565b915060008203611ec857611ec7611c50565b5b600182039050919050565b6000606082019050611ee86000830186611e64565b611ef560208301856118c0565b611f026040830184611e64565b949350505050565b6000611f1582611771565b9150611f2083611771565b925082821015611f3357611f32611c50565b5b828203905092915050565b6000819050919050565b6000611f63611f5e611f5984611730565b611f3e565b611730565b9050919050565b6000611f7582611f48565b9050919050565b6000611f8782611f6a565b9050919050565b611f9781611f7c565b82525050565b6000606082019050611fb26000830186611e64565b611fbf6020830185611f8e565b611fcc60408301846118c0565b949350505050565b600060a082019050611fe96000830188611e64565b611ff660208301876118c0565b6120036040830186611e64565b6120106060830185611e64565b61201d60808301846118c0565b969550505050505056fea2646970667358221220facea1f94cd9337286a7d3074f3e07137b60eea870212b7e3351765cfd44d12264736f6c634300080d0033",
  "immutableReferences": {},
  "source": "// SPDX-License-Identifier: MIT\npragma solidity ^0.8.13;\n\nimport \"@openzeppelin/contracts/token/ERC721/ERC721.sol\";\nimport \"@openzeppelin/contracts/security/ReentrancyGuard.sol\";\n\ncontract RightsManagers is ReentrancyGuard {\n  uint256 _ContractsSold;\n  uint256 _ContractCount;\n  uint256 public LISTING_FEE = 0.0001 ether;\n  address payable private _marketOwner;\n  uint256 totalOffers;\n\n  mapping(uint256 => Audio) private _idToAudio;\n  mapping(uint256 => Offers) private _AudioOffers;\n\n  struct Offers {\n    uint offerId;\n    address offerer;\n    uint256 offerPrice;\n    uint256 tokenId;\n    address[] signatures;\n  }\n\n  struct Audio {\n    address AudioContract;\n    uint256 tokenId;\n    address payable owner;\n    bool listed;\n  }\n\n  event NFTListed(\n    address AudioContract,\n    uint256 tokenId,\n    address owner\n  );\n  event offerMade(\n    address offerer,\n    uint256 tokenId,\n    uint256 offerPrice\n  );\n  event NFTSold(\n    address AudioContract,\n    uint256 tokenId,\n    address seller,\n    address owner,\n    uint256 price\n  );\n\n  constructor() {\n    _marketOwner = payable(msg.sender);\n    totalOffers = 0;\n  }\n\n// ########################################################################\n\n  // List the Audio on the marketplace\n  function listAudio(address _AudioContract, uint256 _tokenId) public payable nonReentrant {\n    require(msg.value == LISTING_FEE, \"Not enough ether for listing fee\");\n\n    IERC721(_AudioContract).transferFrom(msg.sender, address(this), _tokenId);\n    _ContractCount++;\n\n    _idToAudio[_tokenId] = Audio(\n      _AudioContract,\n      _tokenId, \n      payable(msg.sender),\n      true\n    );\n\n    emit NFTListed(_AudioContract, _tokenId, msg.sender);\n  }\n\n// ########################################################################\n\n  function bidAudio(uint256 _tokenId, uint256 _offerPrice) public nonReentrant {\n    _AudioOffers[totalOffers] = Offers(\n        totalOffers,\n        msg.sender,\n        _offerPrice,\n        _tokenId,\n        new address[](0)\n    );\n    _AudioOffers[totalOffers].signatures.push(msg.sender);\n    totalOffers++;\n  }\n\n\n// ########################################################################\n\n\n  // Resell an NFT purchased from the marketplace\n  function resellAudio(address _nftContract, uint256 _tokenId) public payable nonReentrant {\n    require(msg.value == LISTING_FEE, \"Not enough ether for listing fee\");\n\n    IERC721(_nftContract).transferFrom(msg.sender, address(this), _tokenId);\n\n    Audio storage audio = _idToAudio[_tokenId];\n    audio.owner = payable(address(this));\n    audio.listed = true;\n    \n    _ContractsSold--;\n    emit NFTListed(_nftContract, _tokenId, msg.sender);\n  }\n\n// ########################################################################\n\n    function getListedOffers(uint256 _tokenId) public view returns (Offers[] memory) {\n        Offers[] memory offers = new Offers[](totalOffers);\n        uint j = 0;\n        for (uint i = 0; i < totalOffers; i++) {\n            if (_AudioOffers[i].tokenId == _tokenId) {\n                offers[j] = _AudioOffers[i];\n                j++;\n             }\n        }\n        return offers;\n    }\n\n// ########################################################################\n\n    function acceptOffer(uint256 offerId, address _nftContract, uint256 _tokenId) public payable nonReentrant {\n        Offers storage _offer = _AudioOffers[offerId];\n        address buyer = _offer.offerer;\n        // Signature\n        require(_offer.signatures[0] == _offer.offerer);\n        _offer.signatures.push(msg.sender);\n        require(_offer.signatures[1] == msg.sender);\n        require(_offer.signatures.length == 2);\n\n        Audio storage audio = _idToAudio[_tokenId];\n        payable(buyer).transfer(_offer.offerPrice);\n        IERC721(_nftContract).transferFrom(address(this), payable(buyer), audio.tokenId);\n        _marketOwner.transfer(LISTING_FEE);\n        audio.owner = payable(buyer);\n        audio.listed = false;\n\n        _ContractsSold++;\n        emit NFTSold(_nftContract, _tokenId, msg.sender, buyer, _offer.offerPrice);\n    }\n\n// ########################################################################\n\n  function getListingFee() public view returns (uint256) {\n    return LISTING_FEE;\n  }\n\n // ######################################################################## \n\n  function getListedNfts() public view returns (Audio[] memory) {\n    uint256 nftCount = _ContractCount;\n    uint256 unsoldNftsCount = nftCount - _ContractsSold;\n\n    Audio[] memory nfts = new Audio[](unsoldNftsCount);\n    uint nftsIndex = 0;\n    for (uint i = 0; i < nftCount; i++) {\n      if (_idToAudio[i + 1].listed) {\n        nfts[nftsIndex] = _idToAudio[i + 1];\n        nftsIndex++;\n      }\n    }\n    return nfts;\n  }\n\n// ########################################################################\n\n  function getMyNfts() public view returns (Audio[] memory) {\n    uint nftCount = _ContractCount;\n    uint myNftCount = 0;\n    for (uint i = 0; i < nftCount; i++) {\n      if (_idToAudio[i + 1].owner == msg.sender) {\n        myNftCount++;\n      }\n    }\n\n    Audio[] memory nfts = new Audio[](myNftCount);\n    uint nftsIndex = 0;\n    for (uint i = 0; i < nftCount; i++) {\n      if (_idToAudio[i + 1].owner == msg.sender) {\n        nfts[nftsIndex] = _idToAudio[i + 1];\n        nftsIndex++;\n      }\n    }\n    return nfts;\n  }\n\n// ########################################################################\n\n  function getMyListedNfts() public view returns (Audio[] memory) {\n    uint nftCount = _ContractCount;\n    uint myListedNftCount = 0;\n    for (uint i = 0; i < nftCount; i++) {\n      if (_idToAudio[i + 1].listed) {\n        myListedNftCount++;\n      }\n    }\n\n    Audio[] memory audios = new Audio[](myListedNftCount);\n    uint nftsIndex = 0;\n    for (uint i = 0; i < nftCount; i++) {\n      if (_idToAudio[i + 1].listed) {\n        audios[nftsIndex] = _idToAudio[i + 1];\n        nftsIndex++;\n      }\n    }\n    return audios;\n  }\n}",
  "sourcePath": "/Users/hoshang/Documents/Uni/COMP6452/IP9/contracts/ethereum/RightsManager.sol",
  "compiler": {
    "name": "solc",
    "version": "0.8.13+commit.abaa5c0e.Emscripten.clang"
  },
  "schemaVersion": "3.4.8",
  "updatedAt": "2022-07-27T17:10:57.770Z",
  "devdoc": {
    "kind": "dev",
    "methods": {},
    "version": 1
  },
  "userdoc": {
    "kind": "user",
    "methods": {},
    "version": 1
  }
}