{
  "contractName": "BillOfSale",
  "abi": [
    {
      "payable": true,
      "stateMutability": "payable",
      "type": "fallback"
    },
    {
      "constant": true,
      "inputs": [],
      "name": "buyer",
      "outputs": [
        {
          "internalType": "address payable",
          "name": "",
          "type": "address"
        }
      ],
      "payable": false,
      "stateMutability": "view",
      "type": "function"
    },
    {
      "constant": true,
      "inputs": [],
      "name": "confirmed",
      "outputs": [
        {
          "internalType": "bool",
          "name": "",
          "type": "bool"
        }
      ],
      "payable": false,
      "stateMutability": "view",
      "type": "function"
    },
    {
      "constant": true,
      "inputs": [],
      "name": "descr",
      "outputs": [
        {
          "internalType": "string",
          "name": "",
          "type": "string"
        }
      ],
      "payable": false,
      "stateMutability": "view",
      "type": "function"
    },
    {
      "constant": true,
      "inputs": [],
      "name": "price",
      "outputs": [
        {
          "internalType": "uint256",
          "name": "",
          "type": "uint256"
        }
      ],
      "payable": false,
      "stateMutability": "view",
      "type": "function"
    },
    {
      "constant": true,
      "inputs": [],
      "name": "seller",
      "outputs": [
        {
          "internalType": "address payable",
          "name": "",
          "type": "address"
        }
      ],
      "payable": false,
      "stateMutability": "view",
      "type": "function"
    },
    {
      "constant": false,
      "inputs": [
        {
          "internalType": "string",
          "name": "_descr",
          "type": "string"
        },
        {
          "internalType": "uint256",
          "name": "_price",
          "type": "uint256"
        },
        {
          "internalType": "address payable",
          "name": "_seller",
          "type": "address"
        },
        {
          "internalType": "address payable",
          "name": "_buyer",
          "type": "address"
        }
      ],
      "name": "recordContract",
      "outputs": [],
      "payable": false,
      "stateMutability": "nonpayable",
      "type": "function"
    },
    {
      "constant": false,
      "inputs": [],
      "name": "confirmReceipt",
      "outputs": [],
      "payable": true,
      "stateMutability": "payable",
      "type": "function"
    }
  ],
  "bytecode": "0x608060405234801561001057600080fd5b50610766806100206000396000f3fe6080604052600436106100705760003560e01c80637d94ad981161004e5780637d94ad9814610232578063a035b1fe1461023c578063a968991b14610267578063bbba36441461029657610070565b80630585ea691461007257806308551a53146101845780637150d8ae146101db575b005b34801561007e57600080fd5b506101826004803603608081101561009557600080fd5b81019080803590602001906401000000008111156100b257600080fd5b8201836020820111156100c457600080fd5b803590602001918460018302840111640100000000831117156100e657600080fd5b91908080601f016020809104026020016040519081016040528093929190818152602001838380828437600081840152601f19601f82011690508083019250505050505050919291929080359060200190929190803573ffffffffffffffffffffffffffffffffffffffff169060200190929190803573ffffffffffffffffffffffffffffffffffffffff169060200190929190505050610326565b005b34801561019057600080fd5b506101996103cb565b604051808273ffffffffffffffffffffffffffffffffffffffff1673ffffffffffffffffffffffffffffffffffffffff16815260200191505060405180910390f35b3480156101e757600080fd5b506101f06103f0565b604051808273ffffffffffffffffffffffffffffffffffffffff1673ffffffffffffffffffffffffffffffffffffffff16815260200191505060405180910390f35b61023a610416565b005b34801561024857600080fd5b506102516105d5565b6040518082815260200191505060405180910390f35b34801561027357600080fd5b5061027c6105db565b604051808215151515815260200191505060405180910390f35b3480156102a257600080fd5b506102ab6105ee565b6040518080602001828103825283818151815260200191508051906020019080838360005b838110156102eb5780820151818401526020810190506102d0565b50505050905090810190601f1680156103185780820380516001836020036101000a031916815260200191505b509250505060405180910390f35b836002908051906020019061033c92919061068c565b5082600381905550816000806101000a81548173ffffffffffffffffffffffffffffffffffffffff021916908373ffffffffffffffffffffffffffffffffffffffff16021790555080600160006101000a81548173ffffffffffffffffffffffffffffffffffffffff021916908373ffffffffffffffffffffffffffffffffffffffff16021790555050505050565b6000809054906101000a900473ffffffffffffffffffffffffffffffffffffffff1681565b600160009054906101000a900473ffffffffffffffffffffffffffffffffffffffff1681565b600160009054906101000a900473ffffffffffffffffffffffffffffffffffffffff1673ffffffffffffffffffffffffffffffffffffffff163373ffffffffffffffffffffffffffffffffffffffff16146104d9576040517f08c379a00000000000000000000000000000000000000000000000000000000081526004018080602001828103825260168152602001807f6f6e6c792062757965722063616e20636f6e6669726d0000000000000000000081525060200191505060405180910390fd5b6003544714610550576040517f08c379a000000000000000000000000000000000000000000000000000000000815260040180806020018281038252601d8152602001807f7075726368617365207072696365206d7573742062652066756e64656400000081525060200191505060405180910390fd5b6000809054906101000a900473ffffffffffffffffffffffffffffffffffffffff1673ffffffffffffffffffffffffffffffffffffffff166108fc479081150290604051600060405180830381858888f193505050501580156105b7573d6000803e3d6000fd5b506001600460006101000a81548160ff021916908315150217905550565b60035481565b600460009054906101000a900460ff1681565b60028054600181600116156101000203166002900480601f0160208091040260200160405190810160405280929190818152602001828054600181600116156101000203166002900480156106845780601f1061065957610100808354040283529160200191610684565b820191906000526020600020905b81548152906001019060200180831161066757829003601f168201915b505050505081565b828054600181600116156101000203166002900490600052602060002090601f016020900481019282601f106106cd57805160ff19168380011785556106fb565b828001600101855582156106fb579182015b828111156106fa5782518255916020019190600101906106df565b5b509050610708919061070c565b5090565b61072e91905b8082111561072a576000816000905550600101610712565b5090565b9056fea265627a7a72315820bc9e72ea1e6f87456a0cd673d9d0aee17ed3f1da04d1d274ac1dd19baca8da0464736f6c63430005100032",
  "source": "pragma solidity ^0.5.0;\n\ncontract BillOfSale {\n    address payable public seller;\n    address payable public buyer;\n    string public descr;\n    uint public price;\n    bool public confirmed;\n\n    function recordContract(string memory _descr, uint _price, address payable _seller, address payable _buyer) public { // takes in description for item, purchase price, buyer and seller ETH addresses\n        descr = _descr;\n        price = _price;\n        seller = _seller;\n        buyer = _buyer;\n    }\n\nfunction () external payable { }\n\nfunction confirmReceipt() public payable { // allows the buyer to confirm receipt of their item and release funds stored in the contract to the seller\n    require(msg.sender == buyer, \"only buyer can confirm\");\n    require(address(this).balance == price, \"purchase price must be funded\");\n    address(seller).transfer(address(this).balance);\n    confirmed = true;\n    }\n}",
  "sourcePath": "/Users/hoshang/Documents/Uni/COMP6452/RightsManagement/contracts/BillOfSale.sol",
  "compiler": {
    "name": "solc",
    "version": "0.5.16+commit.9c3226ce.Emscripten.clang"
  },
  "schemaVersion": "3.4.8",
  "updatedAt": "2022-07-20T10:15:52.063Z",
  "networkType": "ethereum",
  "devdoc": {
    "methods": {}
  },
  "userdoc": {
    "methods": {}
  }
}