{
  "contractName": "OwnershipAgreement",
  "abi": [
    {
      "constant": true,
      "inputs": [],
      "name": "confirmed",
      "outputs": [
        {
          "internalType": "bool",
          "name": "",
          "type": "bool"
        }
      ],
      "payable": false,
      "stateMutability": "view",
      "type": "function"
    },
    {
      "constant": true,
      "inputs": [],
      "name": "date",
      "outputs": [
        {
          "internalType": "uint256",
          "name": "",
          "type": "uint256"
        }
      ],
      "payable": false,
      "stateMutability": "view",
      "type": "function"
    },
    {
      "constant": true,
      "inputs": [],
      "name": "entity",
      "outputs": [
        {
          "internalType": "address",
          "name": "",
          "type": "address"
        }
      ],
      "payable": false,
      "stateMutability": "view",
      "type": "function"
    },
    {
      "constant": true,
      "inputs": [],
      "name": "item",
      "outputs": [
        {
          "internalType": "string",
          "name": "",
          "type": "string"
        }
      ],
      "payable": false,
      "stateMutability": "view",
      "type": "function"
    },
    {
      "constant": false,
      "inputs": [
        {
          "internalType": "string",
          "name": "_item",
          "type": "string"
        },
        {
          "internalType": "uint256",
          "name": "_date",
          "type": "uint256"
        },
        {
          "internalType": "address",
          "name": "_entity",
          "type": "address"
        }
      ],
      "name": "recordContract",
      "outputs": [],
      "payable": false,
      "stateMutability": "nonpayable",
      "type": "function"
    },
    {
      "constant": false,
      "inputs": [],
      "name": "confirmReceipt",
      "outputs": [],
      "payable": false,
      "stateMutability": "nonpayable",
      "type": "function"
    }
  ],
  "bytecode": "0x608060405234801561001057600080fd5b5061055b806100206000396000f3fe608060405234801561001057600080fd5b50600436106100625760003560e01c8063323046b11461006757806359c41f73146100855780636cdbbc661461016a5780637d94ad98146101b4578063a968991b146101be578063f2a4a82e146101e0575b600080fd5b61006f610263565b6040518082815260200191505060405180910390f35b6101686004803603606081101561009b57600080fd5b81019080803590602001906401000000008111156100b857600080fd5b8201836020820111156100ca57600080fd5b803590602001918460018302840111640100000000831117156100ec57600080fd5b91908080601f016020809104026020016040519081016040528093929190818152602001838380828437600081840152601f19601f82011690508083019250505050505050919291929080359060200190929190803573ffffffffffffffffffffffffffffffffffffffff169060200190929190505050610269565b005b6101726102cc565b604051808273ffffffffffffffffffffffffffffffffffffffff1673ffffffffffffffffffffffffffffffffffffffff16815260200191505060405180910390f35b6101bc6102f1565b005b6101c66103d0565b604051808215151515815260200191505060405180910390f35b6101e86103e3565b6040518080602001828103825283818151815260200191508051906020019080838360005b8381101561022857808201518184015260208101905061020d565b50505050905090810190601f1680156102555780820380516001836020036101000a031916815260200191505b509250505060405180910390f35b60025481565b826001908051906020019061027f929190610481565b5081600281905550806000806101000a81548173ffffffffffffffffffffffffffffffffffffffff021916908373ffffffffffffffffffffffffffffffffffffffff160217905550505050565b6000809054906101000a900473ffffffffffffffffffffffffffffffffffffffff1681565b6000809054906101000a900473ffffffffffffffffffffffffffffffffffffffff1673ffffffffffffffffffffffffffffffffffffffff163373ffffffffffffffffffffffffffffffffffffffff16146103b3576040517f08c379a00000000000000000000000000000000000000000000000000000000081526004018080602001828103825260178152602001807f6f6e6c7920656e746974792063616e20636f6e6669726d00000000000000000081525060200191505060405180910390fd5b6001600360006101000a81548160ff021916908315150217905550565b600360009054906101000a900460ff1681565b60018054600181600116156101000203166002900480601f0160208091040260200160405190810160405280929190818152602001828054600181600116156101000203166002900480156104795780601f1061044e57610100808354040283529160200191610479565b820191906000526020600020905b81548152906001019060200180831161045c57829003601f168201915b505050505081565b828054600181600116156101000203166002900490600052602060002090601f016020900481019282601f106104c257805160ff19168380011785556104f0565b828001600101855582156104f0579182015b828111156104ef5782518255916020019190600101906104d4565b5b5090506104fd9190610501565b5090565b61052391905b8082111561051f576000816000905550600101610507565b5090565b9056fea265627a7a72315820531c0ad9bfeebffd20bb0967e138d3d0f5ec95a13735340d73d8d8ab29caf65c64736f6c63430005100032",
  "source": "// SPDX-License-Identifier: MIT\r\npragma solidity >=0.4.22 <0.9.0;\r\n\r\ncontract OwnershipAgreement {\r\n  address public entity;\r\n  string public item;\r\n  uint public date;\r\n  bool public confirmed;\r\n  //from OpenLaw Template\r\n  function recordContract(string memory _item, uint _date, address _entity) public {\r\n    item = _item;\r\n    date = _date;\r\n    entity = _entity; \r\n  }\r\n\r\nfunction confirmReceipt() public {\r\n    require(msg.sender == entity, \"only entity can confirm\");\r\n    confirmed = true;\r\n  }\r\n}\r\n\r\n\r\n// :[{\"name\":\"_item\",\"type\":\"string\"},{\"name\":\"_date\",\"type\":\"uint256\"},{\"name\":\"_entity\",\"type\":\"address\"}]\r\n// pragma solidity >=0.4.22 <0.9.0;\r\n\r\n// contract OwnershipAgreement {\r\n//     address payable public seller;\r\n//     address payable public buyer;\r\n//     string public descr;\r\n//     uint public price;\r\n//     bool public confirmed;\r\n\r\n//     function recordContract(string memory _descr, uint _price, address payable _seller, address payable _buyer) public { // takes in description for item, purchase price, buyer and seller ETH addresses\r\n//         descr = _descr;\r\n//         price = _price;\r\n//         seller = _seller;\r\n//         buyer = _buyer;\r\n//     }\r\n\r\n// function () external payable { }\r\n\r\n// function confirmReceipt() public payable { // allows the buyer to confirm receipt of their item and release funds stored in the contract to the seller\r\n//     require(msg.sender == buyer, \"only buyer can confirm\");\r\n//     require(address(this).balance == price, \"purchase price must be funded\");\r\n//     address(seller).transfer(address(this).balance);\r\n//     confirmed = true;\r\n//     }\r\n// }",
  "sourcePath": "C:\\Users\\UZAIF SHAIKH\\Documents\\comp6452\\IP9\\contracts\\OwnershipAgreement.sol",
  "compiler": {
    "name": "solc",
    "version": "0.5.16+commit.9c3226ce.Emscripten.clang"
  },
  "schemaVersion": "3.4.8",
  "updatedAt": "2022-07-25T14:23:26.489Z",
  "devdoc": {
    "methods": {}
  },
  "userdoc": {
    "methods": {}
  }
}